:020000040800F2
:10000000D8170020390200085B350008912C000841
:10001000593500082D140008EF3D000800000000CD
:10002000000000000000000000000000A101000826
:100030006914000800000000E50100088339000889
:10004000530200085302000853020008530200083C
:1000500053020008530200086B14000879140008CA
:1000600053020008530200087F14000853020008DE
:10007000530200085302000853020008530200080C
:1000800053020008530200085302000853020008FC
:1000900053020008530200085302000885140008A8
:1000A0001D3A0008293A00085302000853020008CC
:1000B00053020008530200085302000853020008CC
:1000C00053020008530200085302000853020008BC
:1000D00053020008530200085302000853020008AC
:1000E00071140008530200085302000800F002F8DF
:1000F00000F047F80AA090E8000C82448344AAF17B
:100100000107DA4501D100F03CF8AFF2090EBAE878
:100110000F0013F0010F18BFFB1A43F0010318473B
:10012000B85B0000D85B0000103A24BF78C878C1E3
:10013000FAD8520724BF30C830C144BF04680C60ED
:10014000704700000023002400250026103A28BF35
:1001500078C1FBD8520728BF30C148BF0B60704739
:10016000662905F0E884002070471FB500F00CFCFC
:1001700004000020002105F001F8E0601FBD10B56B
:1001800010BD00F001FD1146FFF7EFFF03F084FE04
:1001900000F01FFD03B4FFF7F2FF03BC00F062FDA7
:1001A000224B19680868B0E8F00F80F30988BFF3A4
:1001B0006F8F4FF0000080F311884EF00D0E7047E6
:1001C0000000000006480068006880F3088862B6F6
:1001D00061B6BFF34F8FBFF36F8F00DF00BF00BF6B
:1001E00008ED00E0EFF30980BFF36F8F0F4B1A6843
:1001F00020E9F00F106008B54FF0500080F311882F
:10020000BFF34F8FBFF36F8F04F020FB4FF0000060
:1002100080F31188BDE8084019680868B0E8F00F5D
:1002200080F30988BFF36F8F704700BF2400002060
:10023000EFF30580704700000948804709480047F0
:10024000FEE7FEE7FEE7FEE7FEE7FEE7FEE7FEE786
:10025000FEE7FEE704480549054A064B70470000E3
:10026000F9390008ED000008D8110020D817002047
:10027000D8130020D81300200FB41CB5074B06AAD2
:100280007B4469460090059800F033FB00206946E6
:1002900000F042FB1CBC5DF814FB0000950600005A
:1002A0002DE9F0474FF0000A89460446C0F820A027
:1002B0002046E1688847002876D0252806D0D4E972
:1002C00001219047206A401C2062F1E7E168204646
:1002D00000258847C4F81CA006460027C4F818A0CB
:1002E0002A2E09D0304603F0A7FD38B304EB870867
:1002F000303EC8F8186019E059F8041B204604EB9A
:1003000087029161E1688847012F064618D1E069AC
:10031000002820DA25F020051DE0D8F8180000EBB1
:10032000800006EB40003038C8F818002046E1682D
:100330008847064603F080FD0028EED1012F0AD041
:100340002E2E08D12046E16888477F1C0646022FE2
:1003500045F02005C4DBA069002803DA404245F0DF
:100360000105A061E80701D025F01005B6B1A6F19E
:100370004100192802D8203645F400654A46314626
:10038000204625604D46FFF7EBFE58B1012806D008
:10039000ED1D25F0070000F1080989E704E005F1EB
:1003A000040985E730468AE7206ABDE8F08710B582
:1003B000431C02E010F8011B71B18107FAD14FF024
:1003C000013202C88C1A8C4314EAC211F9D0C01A47
:1003D0000A0603D0C01E10BDC01A10BD0A0401D009
:1003E000801E10BD0902FCD0401E10BD032A40F241
:1003F000308010F0030C00F0158011F8013BBCF1C7
:10040000020F624498BF11F801CB00F8013B38BFDE
:1004100011F8013BA2F1040298BF00F801CB38BFEC
:1004200000F8013B11F0030300F07B82083AC0F0B2
:10043000088051F8043B083A51F804CBA0E80810B2
:10044000F5E7121D5CBF51F8043B40F8043BAFF3E5
:100450000080D20724BF11F8013B11F801CB48BF3F
:1004600011F8012B24BF00F8013B00F801CB48BF75
:1004700000F8012B70474FF0000200B51346944678
:100480009646203922BFA0E80C50A0E80C50B1F1EC
:100490002001BFF4F7AF090728BFA0E80C5048BF00
:1004A0000CC05DF804EB890028BF40F8042B08BF9E
:1004B000704748BF20F8022B11F0804F18BF00F89A
:1004C000012B704770477047704770472DE9FF4F09
:1004D0000C461E464FF0FF378BB0D2E90001DDF825
:1004E00060800A908A46C1F30A5505B93D4600214D
:1004F00008464FF00000BAF1000F00F4400005DAA2
:1005000000EB80004FF4400101EA50004FEA90599F
:10051000B9F1010F00DDB9460A9850EA4A000ED041
:1005200044F61050A5F2FF3545432F14B8F1000FE3
:100530001ED07542291E1EDDC9F100021CE0B8F173
:10054000010F4FF0000001D0302103E0F24305E03D
:100550002154401CB042FBDB3046002200212154D4
:100560000B99C1F80880C1E900200FB0BDE8F08FF9
:10057000BD1B6D1CDEE74A4600DA694206A800F0A2
:100580008DFA06AB93E8070003AB83E807005046FB
:100590000A9900F06EFB8DE80700A0F500501F38A7
:1005A00000900398002D0ADD42F21F014A460844DC
:1005B000002303A90390684600F0D7FD09E0A0F5E9
:1005C00000504A461F38002303A90390684600F0F4
:1005D000E1FD8DE807000004000C03D04FF0FF3070
:1005E000410800E01046B8F1000F03D0002200924D
:1005F00015461EE0751E05D400F0CAF9303262556A
:100600006D1EF9D5B3460122084302D000227F1C9B
:1006100004E02078302801D100227F1E002A0997AB
:1006200084D01DE0112D07DA00F0B2F930326255A6
:100630006D1C50EA0102F5D1084302D00098C8B100
:100640000EE00021681E05E0235C625C63542254C6
:10065000401E491C8142F7DBAB46A81B401E099097
:10066000002004F80B000B98099AC0F80880C0E934
:10067000002B7AE711264FF0000857E72DE9F04FDD
:1006800088460446D21D22F0070191B0D1E900014D
:10069000CDE90A0103F0ACFB02460B98C00F01D074
:1006A0002D2007E02068810701D52B2002E02021C2
:1006B00001EAC000032A099001D0072A05DB03469E
:1006C0004146204600F0AAF90BE12078800601D5CA
:1006D000E06900E00620B8F1650F814606D0B8F168
:1006E000660F18D0B8F1670F70D131E00020B9F172
:1006F000110F009001DB112301E009F101030AAAA7
:1007000001A90CA8FFF7E2FEDDE90C70002609F153
:100710000105834647E001204B4600904FF000471B
:100720000AAA01A90CA8FFF7D1FEDDE90DB00C99CA
:100730005D46002610B909F101000D18B9EB05005E
:1007400003D4C0F1FF3609F10105A5EB09002BE048
:10075000B9F1010F01DA4FF001090020B9F1110FD1
:100760000090484601DD112300E003460AAA01A9D2
:100770000CA8FFF7ABFEDDE90C704D460026834662
:10078000207800070AD4AB4500DA5D4601A8012DA8
:1007900004DD411911F8011C302907D04F4502DA58
:1007A00017F1040F04DA012082460FE06D1EEEE718
:1007B000002F02DCED1B3E4403E0781CA84200DD64
:1007C0007D1CB81B00F1010A4FF00047207800079C
:1007D00003D4AA4501DB4FF0FF3A0021B7F1004FE7
:1007E0000DF143088DF8431024D002202B23002F55
:1007F00001DA7F422D230A21021EA0F1010000DC54
:100800005FB197FBF1FC97FBF1F201FB1C7C1746F3
:100810000CF1300C08F801CDEEE7A8F101000370EF
:100820002188090501D5452100E06521A0F10108D5
:1008300000F8011C09980FA9A1EB0807FF1D00B1E2
:100840000120411901EBEA70A1693844081A401EE1
:10085000A0612078C00602D42046AFF3008009983A
:1008600028B1D4E901219047206A401C20622078F9
:10087000C00622D52046AFF300801EE0002E04DB28
:10088000B34502DD01A8805D00E03020D4E90121FC
:100890009047206A401C2062761CAAF101005FEAA2
:1008A000000A0AD100F070F8C0680168405CD4E921
:1008B00001219047206A401C2062281EA5F10105F5
:1008C000DCDC07E0D4E9012118F8010B9047206A2D
:1008D000401C2062381EA7F10107F3DC2046AFF36D
:1008E0000080032011B041E601694A1C02610878CA
:1008F000704700B58FB0CDE9013100210591054960
:100900007944CDE9031011466846FFF7C9FC0FB0E2
:1009100000BD0000E5FFFFFF0A6802F8010B0A6056
:10092000704710B5203AC0F00B80B1E81850203A5B
:10093000A0E81850B1E81850A0E81850BFF4F5AF7F
:100940005FEA027C24BFB1E81850A0E8185044BF09
:1009500018C918C0BDE810405FEA827C24BF51F876
:10096000043B40F8043B08BF7047D20728BF31F86A
:10097000023B48BF11F8012B28BF20F8023B48BFBB
:1009800000F8012B704700000048704798110020C4
:1009900030B5B0F10A024FEA900E71F100034EEA51
:1009A000817EB0EB0E0061EB91014FEA101E4EEA22
:1009B000017E10EB0E0041EB11114FEA102E4EEAB2
:1009C000016E10EB0E0041EB11214FEA104E4EEA82
:1009D000014E10EB0E0041EB1141401841F10001B6
:1009E0004FEAD00040EA41704FEAD10110EB800598
:1009F0004FEA810444EA907444EB01046D1944EB1E
:100A00000404521BA3414FF0000348BF0A3200D533
:100A100030BD401C41F1000130BD00002DE9F04126
:100A20001F46044603260168072A01F4006004DB20
:100A300008B116A505E016A503E008B115A500E06C
:100A400015A521F010002060A069C01EA0610FB1A3
:100A5000401EA0612046AFF300804FB1D4E90121D0
:100A600038469047206A401C2062C01C206206E085
:100A7000206AFAE7D4E9012115F8010B9047761EA8
:100A8000F8D22046AFF30080BDE8F0814E414E0021
:100A90006E616E00494E4600696E66002DE9F047B2
:100AA000814616468AB0354878440DC88DE80D0059
:100AB00032487844801C03AC0DC884E80D0041F630
:100AC0009B300844372190FBF1F290FBF1F5A5F142
:100AD000800501FB12041B3C02D56442012000E0AA
:100AE0000020DFF898A080460027FA44AAF1BE0A49
:100AF0000EE0E0070AD03246684607EB47010123C3
:100B00000AEB810100F046FB8DE8070064107F1CB2
:100B1000002CEED1194F7F44AE3F19E0E80715D005
:100B200007EB04100DF1180A90E80E008AE80E0099
:100B3000C068F04201D1981908903246012306A9F5
:100B400003A800F027FB03AB83E807006D10641CCB
:100B5000002DE3D14FF0010332466946B8F1000F92
:100B600003A802D000F001FB01E000F013FBC9E98B
:100B70000001C9F808200AB0BDE8F087145200004F
:100B800000487047781100207546FFF7F9FFAE4620
:100B900005006946534620F00700854618B020B589
:100BA000FFF758FBBDE820404FF000064FF000076C
:100BB0004FF000084FF0000B21F00701AC46ACE805
:100BC000C009ACE8C009ACE8C009ACE8C0098D4672
:100BD000704710B50446AFF300802046BDE81040D2
:100BE000FFF7D8BA4FF0013C50F8042B51F8043B02
:100BF0009A4221D1A2EB0C03934313EACC1317D1F1
:100C000050F8042B51F8043B9A4215D1A2EB0C0387
:100C1000934313EACC130BD150F8042B51F8043B47
:100C20009A4209D1A2EB0C03934313EACC13DBD015
:100C30004FF00000704700BFD01A01BAB1FA81F13D
:100C400001F0180122FA01F0CB40C1F12001DBB222
:100C5000C0B2C01A2CFA01F3D11A914311EAC311A0
:100C6000E6D1704701491820ABBEFEE7260002001E
:100C700070475FEA400C08BF91F0000F4FEA8C23E9
:100C80004FEAC12243EA51514FEA1C5018BF00F508
:100C9000F0404FEA300018BF41F000415FEA6C5C61
:100CA00000F02980BCF1FF3F08BF40F08040704752
:100CB000130C06BF12044FF0100C4FF0000C130E73
:100CC00004BF12020CF1080C130F04BF12010CF147
:100CD000040C930F04BF92000CF1020CD30F04BF5D
:100CE00052000CF1010C11464FF00002A0F11F0060
:100CF000A0EB0C00704711F0004F08BF704731F0B7
:100D000000413FF4D5AF0B0C06BF09044FF0100CA7
:100D10004FF0000C0B0E04BF09020CF1080C0B0F76
:100D200004BF09010CF1040C8B0F04BF89000CF106
:100D3000020CCB0F04BF49000CF1010CCCF12003D5
:100D4000A0EB0C0022FA03F302FA0CF241EA0301D1
:100D500000F10100704720F07F4C80EA030023F08F
:100D60007F47ACEB070303F57C5300F0004003F131
:100D7000FF032DE980494FEA154B09B44FEA1443AC
:100D800025EA0B4E24EA03480FF2042606EB13274C
:100D900049083E785FEA320203FB0667C7F50007A1
:100DA00007FB06F64FEA54374FEAD64606F102062D
:100DB00007FB066CCCF1005C4FEA1C472CEA074CA1
:100DC00007FB06F40CFB06F504EB15464FEA9616F6
:100DD00034BF00204FF000404FEAD13706FB07FC3C
:100DE0004FEA1C4C0CFB0BF7D21B03FB0CF761EB1F
:100DF00007010CFB0EF7B0EB074072EB17420CFB40
:100E000008F734BFA2EB0742B2EB074261EB174190
:100E10004FEA0C444FEA910706FB07FC4FEA1C4CD3
:100E20000CFB0BF7B0EBC74072EB573203FB0CF730
:100E300034BFA2EBC742B2EBC74261EB57310CFBA8
:100E40000EF7B0EBC70072EB57720CFB08F734BF1C
:100E5000A2EBC702B2EBC70261EB5771039F4FEAE7
:100E6000816141EA921104EBCC044FEAD1374FEA99
:100E7000826206FB07FC42EA90124FEA80604FEA6A
:100E80001C4C0CFB0BF7D21B03FB0CF761EB0701AF
:100E90000CFB0EF7B0EB074072EB17420CFB08F7A8
:100EA00034BFA2EB0742B2EB074261EB17414FEAB6
:100EB0008C554FEA910704EB9C2406FB07FC4FEA94
:100EC0001C4C0CFB0BF7B0EBC74072EB573203FB2B
:100ED0000CF734BFA2EBC742B2EBC74261EB57310C
:100EE0000CFB0EF7B0EBC70072EB57720CFB08F768
:100EF00034BFA2EBC702B2EBC70261EB577115EB2F
:100F00004C254FEA816141EA92114FEA82624FEA31
:100F1000D13742EA901206FB07FC44F100044FEA85
:100F200080604FEA1C4C0CFB0BF7D21B03FB0CF749
:100F300061EB07010CFB0EF7B0EB074072EB1742B9
:100F40000CFB08F734BFA2EB0742B2EB074261EBA0
:100F5000174115EB1C154FEA813141EA92414FEAE6
:100F6000823242EA90424FEA80304FEA0C7644F1F6
:100F7000000448EA03434EEA0B484FF0000EB2EB80
:100F8000080C71EB030724BF624639464EEB0E0E88
:100F90004FF0000B0018524149414BEB0B0BB2EBE9
:100FA000080C71EB03077BF1000B24BF6246394646
:100FB0004EEB0E0E4FF0000B0018524149414BEB27
:100FC0000B0BB2EB080C71EB03077BF1000B24BF9A
:100FD000624639464EEB0E0E51EA020718BF46F044
:100FE000010616EB0E7655F1000254F1000103D50F
:100FF000BDE88901BDE80088BDE88901BDE8004879
:10100000B619524141EB0101A3F101037047808001
:101010007F7E7D7C7B7A7978777676757473727152
:1010200071706F6E6E6D6C6C6B6A6A69686867660A
:1010300066656464636362616160605F5F5E5E5D9C
:101040005D5C5C5B5B5A5A59595858575756565510
:1010500055555454535352525251515050504F4F72
:101060004F4E4E4D4D4D4C4C4C4B4B4B4A4A4A49C2
:101070004949484848474747474646464545454405
:101080004444444343434342424242414141002B92
:101090009C4630D477002BD01CB54FEA370703B4F9
:1010A0004FF010004FF01001BAF1000F06D0BCF164
:1010B000000FDCBF40F0080040F008014FF00000D6
:1010C0000FBCBDE810400BF1010BBBF1010F08BFD5
:1010D0005FEA170722BF12F1010211F101014FF07F
:1010E000004143F1000300F0004043EA0000704774
:1010F000F9D35708D0E746EA064613F1400F4FEA06
:1011000016461FDD13F1200FDFBF16430A460021EC
:1011100020335B42BED0C3F1200746EA064602FAFE
:1011200007F74FEA164646EA0706C3F1200722FAF8
:1011300003F201FA07F721FA03F14FF0000342EA44
:101140000702A7E746EA020646EA06464FEA1646BF
:1011500046EA0106BCBF46EA0646360C4FF00003DD
:101160004FF000024FF0000194E72DE9804C9A46C1
:10117000934670B491E8380007C831EA400C48BF84
:1011800034EA430C03D5FFF7E6FDFFF780FFF0BC20
:10119000BDE8008C2DE9804C9A46934670B491E8E6
:1011A000380007C810F0804F08BF13F0804F03D1FC
:1011B00000F005F8FFF76BFFF0BCBDE8008C20F0F5
:1011C0007F4780EA030023F07F4C07EB0C03A3F575
:1011D0007C5300F00040A3F1FE0392F0000F00F0FA
:1011E000B38095F0000F00F077802DE901494FEAB8
:1011F00011404FEA144621EA004800FB06FC24EAAD
:10120000064708FB06F607FB08F800FB07F718EB94
:1012100006484CEB164C4FEA124B18EB07484FEAC6
:1012200015464CEB174022EA0B4E0BFB06FC25EA59
:1012300006470EFB06F607FB0EFE0BFB07F71EEB41
:10124000064E4CEB164C4FF000061EEB074E4CEBD7
:10125000174B18EB0B0840F1000018EB0E0B58EB86
:10126000000840F100008F1A4FF000013CBFC94355
:10127000661B14BFB5EB040C00213CBFC943F61B31
:101280004FEA17444EEA8E0E27EA04454FEA1C4700
:1012900004FB07622CEA074C05FB07F70CFB05F67D
:1012A00004FB0CFC16EB074642EB174216EB0C4610
:1012B00042EB1C421BEB060658EB0202414146EA98
:1012C0009E0601D5BDE80189B619524141EB0101E5
:1012D000A3F10103BDE801894FEA14454FEA114724
:1012E00024EA054621EA074C05FB07F406FB07F74D
:1012F0000CFB06F105FB0CFC11EB074144EB17441A
:101300004FEA124711EB0C4144EB1C4422EA074C14
:1013100005FB07F206FB07F70CFB06F605FB0CFCCA
:1013200016EB074642EB174216EB0C4642EB1C4508
:101330006A1854F1000148BF7047B619524141EB99
:101340000101A3F10103704795F0000F37D04FEA78
:1013500011424FEA144721EA024624EA074C02FBF5
:1013600007F106FB07F70CFB06F402FB0CFC14EB81
:10137000074441EB17414FEA154714EB0C4441EB8E
:101380001C4125EA074C02FB07F506FB07F70CFB9F
:1013900006F602FB0CFC16EB074645EB174516EB71
:1013A0000C4645EB1C42121951F1000148BF704731
:1013B000B619524141EB0101A3F1010370474FEA15
:1013C00014454FEA114724EA054621EA074C05FB7C
:1013D00007F106FB07F70CFB06F24FF0000605FBD2
:1013E0000CFC12EB074241EB174112EB0C4251EBA4
:1013F0001C4148BF7047921841EB0101A3F1010362
:10140000704700001CB564210091022301AA462107
:1014100000F05EFABDF8040040BA04F0D1F9BDE86E
:101420001C40014904F0EEB89A99993FFEE700008C
:101430001CB50B4C4FF0FF352A466946606803F037
:1014400013FC0128F8D10748009902F045FA054835
:101450000199383002F040FA322003F06DF9EBE7E1
:1014600000000020C40100207047012000F064B893
:101470004FF4805000F060B8022000F05DB81020FA
:1014800000F05AB8202000F057B872B6FEE700000E
:1014900070B5044600F052F90546601C02D00448BD
:1014A0000078044400F04AF9401BA042FAD370BD12
:1014B000140000207CB500261D4C0546019601282D
:1014C00009D1207858B100202070002301AA1849C2
:1014D000E06803F069FB2078012802D01BE00120BE
:1014E000F2E7022D07D0102D08D0202D08D0B5F539
:1014F000805F10D106E08DF8006006E0012002E078
:10150000022000E003208DF80000002301AA6946B4
:10151000A06803F049FB0198002807D005494FF067
:1015200080500860BFF34F8FBFF36F8F7CBD00000A
:101530000000002004ED00E0044910B50A680242F2
:1015400002D00860FFF7B6FF10BD00001404014090
:101550002DE9F84FDFF8B8910024A9F1040B2346D8
:101560000F2709F1040AABF1040EC9E00125A540DB
:101570002A40AA427DD1674ED1F804C0ACEB0608E0
:10158000B44532D014DCBCF1030F3AD009DCBCF115
:10159000000F2AD0BCF1010F1CD0BCF1020F31D1D9
:1015A0001DE0BCF1110F17D0BCF1120F2AD119E0C8
:1015B000B8F5881F19D006DCB8F5803F15D0B8F50E
:1015C000801F1FD111E0B8F5001F0ED0B8F5041F21
:1015D00018D10AE0CB6815E0CB681B1D12E0CB6880
:1015E00008330FE0CB680C330CE08B682BB1012B78
:1015F0004FF0080303D0456104E0042302E00561D5
:1016000000E00023FF2A01D8064601E000F10406AD
:101610004FEA840501D9A5F12005D6F8008007FA24
:1016200005FC28EA0C0803FA05F548EA0508C6F89F
:1016300000804D68ED0062D5374DAE6946F0010679
:10164000AE61AD6924F0030605F001050095334D48
:1016500006EB050CDCF80850A607360F07FA06F86B
:1016600025EA0805DFF8B880404503D14FF00008AF
:1016700017E044E0DFF8AC80404502D14FF00108AC
:101680000FE0DFF8A480404502D14FF0020808E0E7
:10169000DFF89880404502D14FF0030801E04FF099
:1016A000040808FA06F848EA0508CCF808804D68EE
:1016B000D9F80060ED024D4601D5164300E096438F
:1016C0002E604D68DAF80060AD02554601D516432C
:1016D00000E096432E604D68DBF80060AD035D4688
:1016E00001D5164300E096432E604D68DEF8006099
:1016F000ED03754601D5164300E096432E60641C49
:101700000D682A46E5407FF431AFBDE8F88F000050
:1017100008040140000011100010024000000140C8
:1017200000080140000C014000100140001401407D
:101730000AB1016170470904FBE7000001488068B5
:10174000704700001400002070B5040025D094F804
:101750003D00002520B984F83C50204600F0A4FB51
:10176000242084F83D002068016821F00101016017
:101770002068016841F4004101602068016821F49B
:101780000041016000F010FD4D4A6168914201D8AE
:101790004C4900E04C49884201D2012070BD4B49C0
:1017A0002368B0FBF1F15E6826F03F060E435E60F1
:1017B0006368934206D94FF4967359434FF47A7392
:1017C000B1FBF3F12368491C1E6A26F03F06314342
:1017D00019626168914210D84900401EB0FBF1F2D5
:1017E000521CC2F30B02042A01D2042022E0B0FBF7
:1017F000F1F0401CC0F30B001CE0A268F2B301EB57
:10180000C10303EB0116431EB3FBF6F35B1C43F469
:1018100080431B0549D092B301EBC10202EB0111D9
:10182000401EB0FBF1F0401CC0F30B0040F48040C0
:1018300040F400402168CA694CF6FF739A43104394
:10184000C861D4E9071001432068026822F0C00291
:1018500011430160D4E9030101432068826848F222
:10186000FF339A4311438160D4E90501084321689D
:10187000CA6822F0FF021043C86001E00EE016E0E3
:101880002068016841F0010101602564202084F88E
:101890003D00256384F83E50002070BD01EB4106F9
:1018A000431EB3FBF6F35B1CB3E70120C2E701EB79
:1018B0004101401EB0FBF1F0401CC0F30B00B7E744
:1018C000A086010080841E0000093D0040420F00F8
:1018D0002DE9F84F0025DDF82890984617468A46EE
:1018E00004460095FFF72AFF064694F83D0020289D
:1018F0007AD11923012286492046009601F04EFB39
:101900000028F5D194F83C0001286DD0012084F81E
:101910003C0020680168C90703D1016841F001015A
:1019200001602068016821F400610160222084F8D0
:101930003D00102084F83E0025646762A4F82A80E8
:10194000608D20857348E06233464A465146204602
:1019500001F0B6F900287CD1208DDFF8BC8120276A
:1019600068B1012814D00228206801681ED041F413
:10197000806101602068416980690090BBE0206857
:10198000416981690091016841F400710160B2E030
:101990002068016821F48061016072B620684169A5
:1019A00081690091016841F400710AE041F400612D
:1019B000016072B62068416981690091016821F473
:1019C0008061016062B696E0032865D801280CD0DA
:1019D00002284B464FF000024146204600960BD0AD
:1019E00001F0DCFAA8BB0CE090E032464946204604
:1019F00001F07AFB68BB71E001F0D0FA48BB72B627
:101A000033E02068016821F48061016072B62068CB
:101A10000069616A0870606A401C6062208D401E27
:101A20002085608D401E60853C4846F2A811006804
:101A3000B0FBF1F0C0EBC00000EB80000090401E56
:101A4000009007D020684069C04340070DD500983A
:101A5000F5E727E044F8305F6773A573206940F02D
:101A60002000206162B625731CE02068016841F403
:101A70000071016020680069616A0870606A401C3A
:101A80006062218D491E2185618D491E618562B686
:101A900021680969017025E032464946204601F077
:101AA00023FB10B10120BDE8F88F20680069616A4E
:101AB0000870606A401C6062208D401E81B22185E2
:101AC000608D401E608520684269D243520712D45F
:101AD000032903D1016821F4806101602068006955
:101AE000616A0870606A401C6062208D401E20851B
:101AF000608D401E6085208D00287FF465AF84F8DE
:101B00003D7084F83E5084F83C50CCE70220CAE790
:101B1000020010000000FFFF040001002000002070
:101B20002DE9F84F1F4690468A460446DDF8289076
:101B3000FFF704FE054694F83D0020287FD11923C5
:101B4000012240492046009501F028FA002876D16C
:101B500094F83C00012872D0012084F83C002068F1
:101B60000168C90703D1016841F0010101602068E3
:101B7000016821F400610160212084F83D001020FB
:101B800084F83E0000262664C4F824806785608DB2
:101B900020852D48E0622B464A465146204601F0FA
:101BA00005F990B9206841698069009036E02A46BD
:101BB0004946204601F0D0FA50B1206C042804D1E7
:101BC0002068016841F4007101600120BDE8F88FD0
:101BD000606A216800780861606A401C6062618DFB
:101BE000491E6185218D491E89B22185226853696C
:101BF000DB435B070BD451B100781061606A401C75
:101C00006062608D401E6085208D401E20852A46C2
:101C10004946204601F096F90028CED1208D0028B3
:101C2000C5D154F83D0B016841F4007101602020DA
:101C300004F81E09E67766770020C7E7FFE7022071
:101C4000C4E70000020010000000FFFF2DE9FF4F75
:101C500083B00025DDE910799A4693460446DDF805
:101C600048800095FFF76AFD064694F83D0020285D
:101C70007CD11923012288492046009601F08EF973
:101C80000028F5D194F83C0001286FD0012084F899
:101C90003C0020680168C90703D1016841F00101D7
:101CA00001602068016821F400610160222084F84D
:101CB0003D00402084F83E0025646762A4F82A9025
:101CC000608D20857548E062CDE9008653465A460E
:101CD0002046049901F0B8F800287CD1208DDFF867
:101CE000C091202768B1012814D00228206801681B
:101CF0001ED041F4806101602068416980690090D4
:101D0000BCE02068416981690091016841F400717B
:101D10000160B3E02068016821F48061016072B65F
:101D20002068416981690091016841F400710AE00D
:101D300041F40061016072B62068416981690091D7
:101D4000016821F48061016062B697E0032865D8DC
:101D500001280CD0022843464FF000024946204695
:101D600000960BD001F01AF9A8BB0CE091E03246C6
:101D70004146204601F0B8F968BB72E001F00EF967
:101D800048BB72B633E02068016821F480610160CD
:101D900072B620680069616A0870606A401C6062FF
:101DA000208D401E2085608D401E60853D4846F296
:101DB000A8110068B0FBF1F0C0EBC00000EB8000A0
:101DC0000090401E009007D020684069C043400743
:101DD0000DD50098F5E727E044F8305F6773A573E9
:101DE000206940F02000206162B625731CE0206865
:101DF000016841F40071016020680069616A08703F
:101E0000606A401C6062218D491E2185618D491EDA
:101E1000618562B621680969017026E03246414653
:101E2000204601F061F918B1012007B0BDE8F08F3C
:101E300020680069616A0870606A401C6062208DD9
:101E4000401E81B22185608D401E608520684269F8
:101E5000D243520712D4032903D1016821F48061CF
:101E6000016020680069616A0870606A401C6062F5
:101E7000208D401E2085608D401E6085208D0028AD
:101E80007FF464AF84F83D7084F83E5084F83C5091
:101E9000CBE70220C9E70000020010000000FFFFAE
:101EA000040001002000002030B585B00021009121
:101EB0000191029103911E4D03681E4C12210322D1
:101EC0001D48AB4216D1A36943F00803A361A3697F
:101ED000039203F008030493C023CDE9003169465F
:101EE000FFF736FBE06940F40010E061E06900F4C0
:101EF000001019E0114DAB4217D1A36943F008035C
:101F0000A361A369039203F0080304934FF44063B1
:101F1000CDE900316946FFF71BFBE06940F4800022
:101F2000E061E06900F48000049005B030BD00007D
:101F30000054004000100240000C014000580040D6
:101F400002488168027811448160704714000020C3
:101F5000074810B5016841F010010160032000F04E
:101F60007BF80F2000F006F800F024F8002010BDE8
:101F70000020024070B50D4D04464FF47A71287868
:101F8000B1FBF0F00A490968B1FBF0F000F0E2FAA9
:101F900048B9102C07D200222146501E00F03CF810
:101FA00000206C6070BD012070BD00001400002096
:101FB000200000200F4808B5816941F001018161CE
:101FC000816901F001010091C16941F08051C16155
:101FD000C069002200F0805000900F21901E00F098
:101FE0001BF80548416821F0E06141F00071416053
:101FF00008BD00000010024000000140002809DB7D
:1020000000F01F02012191404009800000F1E02012
:10201000C0F8001170470000F0B40E4B1B680C466E
:10202000C3F30223C3F10705042D00D90425191DAC
:10203000072901D2002300E0DB1E012606FA05F184
:10204000491E214099409E40761E16403143F0BC07
:1020500001F0E2BE0CED00E0064900F0070208685E
:102060004FF6FF03184040EA0220034A104308607D
:10207000704700000CED00E00000FA052DE9F04784
:102080000F46050061D0434E306800F00700B842AB
:1020900009D2306820F0070038433060306800F023
:1020A0000700B84251D128683B4C810712D5400740
:1020B00003D5606840F4E06060602878000703D5CD
:1020C000606840F4605060606068A96820F0F000CB
:1020D000084360602878C00728D06868012810D0BD
:1020E0002168022810D0890700292EDA616821F0C2
:1020F000030101436160FFF721FB804641F288390B
:102100000DE021688903EFE78901EDE7FFF716FB92
:10211000A0EB0801494502D90320BDE8F0876068BB
:10212000696800F00C00B0EB810FEFD1306800F06F
:102130000700B8420BD9306820F007003843306000
:10214000306800F00700B84201D00120E5E72878A8
:10215000400705D56068E96820F4E06008436060E6
:102160002878000706D56068296920F4605040EAA5
:10217000C100606000F038F86168084AC1F30311DB
:10218000515CC8400649086006480068FFF7F2FE47
:102190000020C2E700200240001002402C5C000832
:1021A0002000002018000020044805490068496804
:1021B000044AC1F30221515CC8407047200000204E
:1021C000001002403C5C000804480549006849686A
:1021D000044AC1F3C221515CC8407047200000206E
:1021E000001002403C5C00080E4A51680E4801F0A5
:1021F0000C03042B11D0082B0FD10C48C1F38343DF
:10220000C903C05C0AD55168084AC1F34041921E17
:10221000515C054A5043B0FBF1F070470449484314
:10222000704700000010024000127A001C5C000899
:1022300000093D002DE9F84F040070D02078C04D12
:10224000C00749D06868C0F38100012807D06868DA
:10225000C0F38100022809D16868C00306D5286848
:10226000800339D560680028E7D035E06068B0F5B4
:10227000803F0BD010B1B0F5A02F11D0286820F40A
:1022800080302860286820F4802002E0286840F42C
:1022900080302860606890B1FFF750FA06460AE087
:1022A000286840F480202860F0E700BFFFF746FA76
:1022B000801B642873D828688003F7D50CE0FFF7EB
:1022C0003DFA064605E000BFFFF738FA801B642898
:1022D000F0D828688003F7D420789A4E80074FF012
:1022E00001094FF0000839D5686810F00C0F07D0CD
:1022F0006868C0F38100022809D16868C00306D469
:102300002868800714D52069012808D110E02069C9
:10231000B0B1C6F80090FFF711FA074605E00AE1F0
:10232000FFF70CFAC01B0228C4D828688007F7D52D
:102330002868616920F0F80040EAC10028600DE0DB
:10234000C6F80080FFF7FAF9074604E0FFF7F6F950
:10235000C01B022823D828688007F7D420780007FC
:102360002CD57948A169D9B1C0F80090FFF7E6F9FA
:10237000074604E0FFF7E2F9C01B02280FD8686A9D
:102380008007F7D571484FF4FA510068B0FBF1F0BF
:10239000009000BF0098411E0091FAD20EE080E04C
:1023A000C0F80080FFF7CAF9074604E0FFF7C6F956
:1023B000C01B022875D8686A8007F7D420784007C8
:1023C00060D5E8690027C00008D4E86940F0805073
:1023D000E861E869012700F0805000905C480168DE
:1023E000C90513D40168834641F480710160FFF789
:1023F000A5F9824606E000BFFFF7A0F9A0EB0A00AE
:1024000064284ED8DBF80000C005F5D5E068012847
:102410000AD008B1052813D0286A20F001002862EC
:10242000286A20F0040002E0286A40F001002862D7
:10243000E06841F2883B98B1FFF780F982460BE0F3
:10244000286A40F004002862EEE700BFFFF776F943
:10245000A0EB0A0159455AD8286A8007F6D50CE046
:10246000FFF76CF9824605E0FFF768F9A0EB0A0177
:1024700059454CD8286A8007F6D41FB1E86920F086
:102480008050E861E06988B36968C1F3810102297D
:1024900044D00228C6F8608004D0FFF74FF9044604
:1024A00038E034E0FFF74AF9074604E0FFF746F961
:1024B000C01B02282BD828688001F7D4206AB0F509
:1024C000803F05D16868A16820F400300843686047
:1024D000D4E908010843696821F47411084368606D
:1024E000C6F86090FFF72AF9044606E025E000BF31
:1024F000FFF724F9001B022809D828688001F7D5C6
:102500001BE000BFFFF71AF9001B022802D90320C5
:10251000BDE8F88F28688001F4D40EE00128F7D0D8
:102520006868226A00F48031914204D1616A00F443
:102530007010884201D00120EAE70020E8E700009F
:10254000001002400000424280044242200000206D
:102550000070004010B5401EB0F1807F01D3012013
:1025600010BD4FF0E02460610F21601701F054FCB2
:102570000020A06107202061002010BD7047704737
:1025800010B590F83C20012A22D0012280F83C208E
:10259000CA688C6822F4407222434C6822F480623C
:1025A00022430C6822F4006222430C6922F4805218
:1025B00022434C6922F400522243C969002322F4C9
:1025C00080420A4301684A6480F83C30002010BD14
:1025D000022010BD70B590F83C20012A26D00124BD
:1025E00080F83C40022280F83D2003685A689D68CC
:1025F00022F070060A6832435A600D4B02689A4214
:1026000008D0B2F1804F05D00A4B9A4202D00A4B53
:102610009A4204D1496825F080031943916080F8FB
:102620003D40002180F83C10084670BD022070BD7E
:10263000002C0140000400400008004010B50400D8
:1026400003D094F83D0010B107E0012010BD002038
:1026500084F83C00204600F01FF8022084F83D007A
:10266000211D206801F0E6F9012084F8460084F875
:102670003E0084F83F0084F8400084F8410084F86C
:10268000420084F8430084F8440084F8450084F84C
:102690003D00002010BD000008B500680F498842C9
:1026A0001AD10F48816941F400618161806900227B
:1026B00000F40060009005211820FFF7ADFC182001
:1026C000FFF79CFC002205211920FFF7A5FCBDE8BF
:1026D00008401920FFF792BC08BD0000002C014003
:1026E0000010024070B5044690F83C000025012817
:1026F00017D0012684F83C60022084F83D00206851
:10270000826822F0770222F47F42826008685028B3
:1027100038D00DDC20284FD005DC90B3102811D123
:102720004AE0022070BD302846D040280AD13BE064
:1027300060282FD070280DD0B0F5805F03D0B0F5A1
:10274000005F12D0012584F83D60002084F83C0031
:10275000284670BDCB68D1E90121206801F0B3F9AA
:102760002068816841F0770109E0CB68D1E9012157
:10277000206801F0A8F92068816841F480418160F7
:10278000E1E719E0CA684968206801F051FA502170
:10279000206806E0CA684968206801F05AFA60219A
:1027A000206801F09AF9CEE7CA684968206801F00C
:1027B0003FFA40212068F4E7226801461046F0E71E
:1027C00070472DE9F04104460068C66805694FF07E
:1027D0000007A90713D5B10711D5F91E0161012022
:1027E0002077206880698007204602D0FFF7E8FF45
:1027F00004E000F0A5F8204600F037F927776807D5
:1028000016D5700714D521686FF004000861022006
:1028100020772068806910F4407F204602D0FFF7BF
:10282000CFFF04E000F08CF8204600F01EF9277777
:10283000280715D5300713D521686FF00800086107
:10284000042020772068C0698007204602D0FFF767
:10285000B7FF04E000F074F8204600F006F927778F
:10286000E80616D5F00614D521686FF0100008614F
:10287000082020772068C06910F4407F204602D0ED
:10288000FFF79EFF04E000F05BF8204600F0EDF853
:102890002777E80708D0F00706D021686FF001001D
:1028A0000861204600F030F9280608D5300606D524
:1028B00021686FF0800008612046FFF75FFE680620
:1028C00008D5700606D521686FF0400008612046E3
:1028D00000F01BF9A8060AD5B00608D521686FF0EC
:1028E000200008612046BDE8F041FFF748BEBDE882
:1028F000F081000000B585B00021009101910291A6
:10290000039100680B49884212D10B48816941F05C
:10291000040181618069694600F0040004904FF46D
:10292000407000900220019003900448FEF710FED2
:1029300005B000BD002C014000100240000801401D
:10294000704770B5044690F83C0000260D460128FB
:102950000FD0012084F83C006AB1042A1DD0082A57
:102960002FD00C2A3FD00126002084F83C003046AE
:1029700070BD022070BD206801F0B8F82068816940
:1029800041F0080181612068816921F004018161C1
:10299000206881692A69114311E0206801F0CEF8AE
:1029A0002068816941F4006181612068816921F4B6
:1029B00080618161206881692A6941EA022181611F
:1029C000D2E7206801F0E6F82068C16941F008010B
:1029D000C1612068C16921F00401C1612068C16939
:1029E0002A69114311E0206801F000F92068C169EB
:1029F00041F40061C1612068C16921F48061C16155
:102A00002068C1692A6941EA0221C161ACE710B5B9
:102A1000040003D094F83D0010B107E0012010BD80
:102A2000002084F83C00204600F01EF8022084F8C4
:102A30003D00211D206800F0FDFF012084F84600C4
:102A400084F83E0084F83F0084F8400084F8410098
:102A500084F8420084F8430084F8440084F8450078
:102A600084F83D00002010BD7047704710B5044643
:102A7000022249B104290ED0082913D094F841004C
:102A8000012816D0012010BD94F83E000128F9D18C
:102A900084F83E200FE094F83F000128F2D184F83A
:102AA0003F2008E094F840000128EBD184F8402052
:102AB00001E084F841200122206800F0F7FF0F496F
:102AC0002068884203D1426C42F40042426420688C
:102AD000884208D0B0F1804F05D00949884202D021
:102AE0000849884204D1816801F00701062903D012
:102AF000016841F001010160002010BD002C01407F
:102B000000040040000800407047704770B50400A2
:102B100004D094F84100002510B106E0012070BDFA
:102B200084F84050204600F023F8242084F8410027
:102B30002068C16821F40051C160204601F0C2F84C
:102B40002068016921F4904101612068416921F008
:102B50002A0141612068C16841F40051C160656487
:102B6000202084F8410084F842006563002070BD95
:102B700030B585B000240094019402940394006859
:102B8000184988422BD11848C16941F40031C1610C
:102B9000C16901F400310491816941F0040181614E
:102BA0008069124D00F0040004900420009002207F
:102BB00001900320039069462846FEF7C9FC0820CF
:102BC000CDE90004694628460294FEF7C1FC0022C4
:102BD00005212620FFF720FA2620FFF70FFA05B07F
:102BE00030BD0000004400400010024000080140D9
:102BF0002DE9F843044690F84100984616460D46E4
:102C0000202802D00220BDE8F88385B17EB10020E3
:102C10006064212084F84100FEF790FDA68481467F
:102C2000E684A0682027B0F5805F02D003E0012091
:102C3000E9E7206910B12E4600250EE000260CE0E1
:102C40008021204601F09AF8A8B9C6B116F8010B08
:102C500021684860E08C401EE084E08C4B464FF0D9
:102C60000002CDF800800028EAD14FF04001204654
:102C700001F084F840B184F841700320C3E735F8CF
:102C8000020BC0F30800E3E784F841700020BAE7C4
:102C9000FEE701684A69D24352050FD46FF480629F
:102CA0004A61002140F8301F20224273817302697B
:102CB00042F0040202610173012070470020704756
:102CC0002DE9F84F0446C06A1E4693460D4621681A
:102CD0000A6842F480620A60082807D0012805D0FB
:102CE00010F5803F02D0206B112804D120680168C4
:102CF00041F4807101604FF001195B4600224946A2
:102D00002046009600F04AF94FF4007840B1206860
:102D10000068C00501D5C4F840800320BDE8F88FE5
:102D20002069DFF884A0B0F5804F0FD0062021681D
:102D300000EAD51747F0F000086133465A460AF119
:102D40000601204600F072F958BB03E0E8B240F0FB
:102D500001001CE02168E8B2086133465A4651463A
:102D6000204600F063F9E0B920684169816900916B
:102D7000016841F4807101605B46002249462046AB
:102D8000009600F00BF90028C1D147F0F10021684E
:102D9000086133465A465146204600F047F900285C
:102DA000BCD00120BAE7000002000100F8B50446DB
:102DB000C06A1E460D461746082807D0012805D0D0
:102DC00010F5803F02D0206B122804D120680168E2
:102DD00041F480710160134600224FF0011120463A
:102DE000009600F0DBF840B120680068C00502D50D
:102DF0004FF4007020640320F8BD2069B0F5804FC7
:102E00000ED00620216800EAD51040F0F0000861DD
:102E100033463A460B49204600F008F978B902E0FB
:102E200005F0FE0000E0E8B221680861054933467C
:102E30003A46891F204600F0F9F80028DCD001202E
:102E4000F8BD0000080001002DE9F84F04460068B5
:102E500089460B9D01689846174641F480610160E0
:102E60002068016841F48071016000954FF0011BFA
:102E70000022594620460A9B00F090F84FF4007A51
:102E800040B120680068C00501D5C4F840A0032007
:102E9000BDE8F88F216809F0FE0008612B4628493B
:102EA00020460A9A00F0C2F8F0BB206841698069A8
:102EB00000902A4620460A9900F04EF940B1206C55
:102EC00004283AD12068016841F40071016034E0BF
:102ED000FEB2B8F1010F09D02168380A08612A460C
:102EE00020460A9900F038F90028E8D120680661E8
:102EF0002A4620460A9900F02FF90028DFD12068E1
:102F0000016841F480710160009500225946204615
:102F10000A9B00F043F80028B3D1216809F0FF00B4
:102F200040F00100086100E007E02B46044920461C
:102F30000A9A00F07BF80028AAD00120A8E7000038
:102F40000200010070B516460D4604461EE02046FC
:102F5000FFF79FFE08B1012070BD681C16D0FEF778
:102F6000EDFB801BA84200D885B920684069C043AA
:102F700040070BD5002044F8300F20216173A07367
:102F8000216941F0200121612073E4E72068406954
:102F9000C0434007DBD4002070BD00002DE9F0479E
:102FA000984617460D460446C1F30746DDF82090C3
:102FB0002AE000BFB8F1FF3F26D0FEF7BFFBA0EB31
:102FC0000901414502D8B8F1000F1DD12068012E3A
:102FD00016D0806925EA00000004000C12D0002001
:102FE000B84211D1002044F8300F20216173A07342
:102FF000216941F02001216120730120BDE8F087A3
:103000004069E7E70120EBE72068012E0AD08069DC
:1030100025EA00000004000C06D00020B842C9D008
:103020000020EBE74069F3E70120F7E72DE9F047DF
:10303000984616460D4604464FF000094FF0200A08
:10304000C1F3074723E020684069C043400515D419
:103050002068016841F40071016021686FF48060AC
:103060004861C4F8309084F83DA084F83E90216C0B
:1030700041F00401216484F83C9021E0701C06D0EA
:10308000FEF75CFBA0EB0800B04203D816B1012F9D
:103090001FD021E02068012F15D0806925EA0000AB
:1030A0000004000C18D000BF44F8309F84F80DA035
:1030B00084F80E90216941F02001216184F80C9080
:1030C0000120BDE8F087406925EA00000004000CFB
:1030D000EAD12068406901E02068806925EA0000A3
:1030E0000004000CAFD1ECE72DE9F041002590463B
:1030F0000E460446202728E04069C043C0060CD491
:1031000054F8301B6FF01000486144F8105967778D
:10311000A577206A2062257714E0FEF70FFBA0EB6D
:103120000800B04200D886B920684069C043400614
:103130000BD544F8305F6773A573206940F0200019
:10314000206125730120BDE8F08120684169C943F1
:103150004906D1D40020F6E770B516460D46044660
:103160001EE02046FFF795FD08B1012070BD681CE8
:1031700016D0FEF7E3FA801BA84200D885B9206874
:103180004069C04300060BD5002044F8300F2021D1
:103190006173A073216941F0200121612073E4E78C
:1031A00020684069C0430006DBD4002070BD1CB518
:1031B00005218DF8041010218DF8051000218DF8DF
:1031C0000610491E0091032301AA8021FEF7A8FCE6
:1031D0001CBD00001FB54FF0FF33022203A98DE88C
:1031E0000E00012304228021FEF730FDBDF80C0003
:1031F00040BA00B202F009F8044A054B02F01CF88C
:1032000004B0BDE8104001F0CFBF0000FCA9F1D22E
:103210004D62503F1FB54FF47A73022203A98DE827
:103220000E0001238021FEF711FDBDF80C0040BA0D
:1032300000B2C01001F0E9FF044A054B01F0FCFFA9
:1032400004B0BDE8104001F0AFBF0000FCA9F1D20E
:103250004D62703F70B586B00024314800940194EF
:1032600002940394816941F020018161816901F038
:1032700020010491816941F004018161816901F0BB
:1032800004010491816941F0080181618069254E42
:1032900000F008004FF44C650490002229463046A7
:1032A000FEF746FA0220CDE9024000950125694665
:1032B00001953046FEF74CF941F2330000901A4870
:1032C000CDE9010569463046FEF742F900220521A5
:1032D0000620FEF7A1FE0620FEF790FE0022052143
:1032E0000720FEF799FE0720FEF788FE0022052141
:1032F0000A20FEF791FE0A20FEF780FE002205213B
:103300001720FEF789FE1720FEF778FE0022052120
:103310002820FEF781FE2820FEF770FE06B070BD63
:103320000010024000080140000021100C4810B5B8
:103330000A4901600B49416000214FF480428160DD
:10334000C0E9031241618161C1610162FEF7FCF9CC
:10335000002801D072B6FEE710BD00000054004006
:103360008C000020A08601000C4810B50A490160BD
:103370000B49416000214FF480428160C0E9031293
:1033800041618161C1610162FEF7DEF9002801D06F
:1033900072B6FEE710BD000000580040E0000020BB
:1033A000A086010010B596B000240F9410941194DB
:1033B000129413941C2168461494FDF75CF82021A4
:1033C00007A8FDF758F82C482A4901604721C0E9B1
:1033D000011440F2E731C0E9031444618461FFF74E
:1033E0002DF908B172B6FEE74FF480500F900FA987
:1033F0002148FFF777F908B172B6FEE71E48FFF7DC
:1034000006FB08B172B6FEE7139413A91A48149488
:10341000FFF7E0F808B172B6FEE76020CDE90004DE
:103420000294039404940594002269461248069479
:10343000FFF787FA08B172B6FEE7042269460E4824
:10344000FFF77FFA08B172B6FEE707940894099473
:103450004FF400500A94CDE90B4007A906480E949A
:10346000FFF78EF808B172B6FEE70348FFF742FA9D
:1034700016B010BD002C0140340100200B4810B5DF
:10348000094901604FF4E1314160002181600C2263
:10349000C160C0E904128161C161FFF737FB0028F8
:1034A00001D072B6FEE710BD004400407C01002050
:1034B000264D08B5234F244CDFF894904FF0FF3889
:1034C000A5F1380642466946A06801F0CDFB012807
:1034D000F8D120780128F5D19DF8000030B10128FD
:1034E0000CD002281AD0032814D11FE03946A86A4C
:1034F00001F0CCFF494600F0BAFC06E03946A86A64
:1035000002F0A4FA134900F09EFC01460F4800BFE8
:1035100000F0E2F9322001F00FF9D3E73946B06A42
:1035200001F0B4FF494600F0A2FC06E03946B06A5B
:1035300002F08CFA002100F086FC0146034838387E
:10354000E6E700000000A04000000020FC01002091
:103550000000B4420000B4C2FEE7FEE7BCB06A4817
:103560003990002038900421684800F046FA6748F6
:10357000FDF748FF07460721644800F03EFA63481C
:10358000FDF740FF04460521604800F036FA5F4829
:10359000FDF738FF054606215C4800F02EFA5B482F
:1035A000FDF730FF064601F045FF81468A46284672
:1035B00001F040FF80462046019101F03BFF834629
:1035C0003846009101F036FF0B460199CDE9049A87
:1035D000CDE9028100990246CDE900B14CA106A8CF
:1035E000FCF74AFE06A8FCF7E2FE82B24FF0FF3974
:1035F0004B4606A94C48FFF7FBFADFF8308198F8F4
:10360000000000287BD12146384601F03FFFCB4621
:10361000494602F0C4FA82463146284601F036FF98
:10362000594602F0BCFA81462946384601F02EFF81
:10363000594602F0B4FA07463146204601F026FF0B
:10364000594602F0ACFA04465146484602F0FEF9EB
:1036500005463946204602F0F9F90446344E25F075
:103660000040B0421FDD334901F0CCFF314600F08D
:10367000FEFB01464FF400023998954205DB224FCC
:10368000B84202DA01F002FF06E015F1FF4F03D362
:10369000904201DB02F0DAF9274AA0F500019142DD
:1036A00001D23A90399024F00040B04220DD214907
:1036B00001F0A8FF314600F0DAFB01463898B4F576
:1036C000000F05DB104B984202DA01F0DFFE07E045
:1036D00014F1FF4F04D3194B984201D202F0B6F90E
:1036E0001649884204D80849884201DC3B9038904A
:1036F000002364223AA9D8F8040001F0A5F94FF498
:103700007A7001F019F82EE70000B4428C00002016
:10371000252E31663B252E31663B252E31663B2515
:103720002E31660A000000007C010020000000200D
:103730000000A04000002041000034420000B4C25C
:103740009EB04FF47A794FF0FF3A1648FFF762FDCA
:1037500080461448FFF73EFD04460146404602F00D
:1037600077F801F067FE06460F46204601F062FE3C
:1037700004460D46404601F05DFE8DE8F0000B4624
:10378000024609A104A8FCF777FD04A8FCF70FFE88
:1037900082B2534604A91148FFF72AFA484600F0BE
:1037A000CBFFD2E7E000002042757320566F6C74A7
:1037B0006167653A20252E326620562C20416D70B7
:1037C000653A20252E336620412C20506F77657294
:1037D0003A20252E336620570D0A00007C01002078
:1037E00010B5044690F83400002807D0A1880122C3
:1037F0002068FDF79DFF002084F8340010BD10B54F
:10380000044690F8340000280CD1A18800222068DA
:10381000FDF78EFF012084F83400BDE8104005203C
:10382000FDF736BE10BD2DE9F0410446DDE908067E
:10383000DDE906C72360C4E90412A4F804C0A76048
:10384000A08184F835600020A0610D46E061A6B13A
:1038500010236362C8267343A0622362E062C968D2
:103860004908216384F8340028461146FFF7FEF822
:103870002046BDE8F041FFF7B3BF0823E9E770B584
:103880000546002927D04FF0010000EBE17601DA70
:10389000C1F100010C462846FFF7B1FF314628462A
:1038A00000F054F82846296B00F05EF8E8690EB184
:1038B000204400E0001BE8614FF47A704443286B19
:1038C000B4FBF0F0FDF7E4FDE869A8612846BDE827
:1038D0007040FFF785BF70BD2DE9F04104460E46EC
:1038E000006A01F06DFF144901F08CFE0746134891
:1038F000134D844201D1002103E01248844218D1C3
:103900001149304601F070FF13D32946304602F0CA
:103910006BF80ED33046A16A02F098F8394601F0F0
:1039200097FF01F031FF010003D02046FFF7A7FF0A
:10393000A662BDE8F08100000000B443C40100208D
:103940000000B442FC0100200000B4C210B509B16F
:10395000012200E0002281898068FDF7E9FEBDE8D0
:1039600010400120FDF794BD016342692AB1042A89
:1039700002D1006900688163704700690068416393
:10398000704710B5FEF7DCFA01F09CFA012803D06D
:10399000BDE8104000F0DCBF10BD30B58FB028216D
:1039A0006846FCF768FD14210AA8FCF764FD0121B4
:1039B0000804CDE900100024029402250491CDE909
:1039C00007504FF4E01009906846FEF733FC08B149
:1039D00072B6FEE70F20CDE90A054FF48060CDE90D
:1039E0000C4002210AA80E94FEF748FB002801D0E3
:1039F00072B6FEE70FB030BD70471CB501228A4099
:103A000064218DF804200091012301AAE021FEF732
:103A100087F80A20FDF73CFD1CBD00000148FEF7B9
:103A2000D0BE0000340100200148FEF7CABE0000ED
:103A300034010020F0B50268194B1A4C1A4D4FF0B2
:103A40008047984205D0B84203D0A04201D0A84296
:103A500003D122F070064A683243984205D0B8423A
:103A600003D0A04201D0A84203D122F44074CA6816
:103A700022434C6922F08002224302608A68C262BB
:103A80000A688262984201D109690163012141619A
:103A90000169C90703D0016921F001010161F0BD8D
:103AA000002C0140000400400008004010B501F067
:103AB0001F030121046A99408C430462016A9A4001
:103AC0001143016210BD10B5846842EA032224F458
:103AD0007F440A432243826010BD826822F0700254
:103AE0000A4342F0070181607047000030B5036A65
:103AF000026A22F0010202624268846924F07305BE
:103B00000C682C4323F002058B682B430A4DA84216
:103B10000BD123F00805CB6822F440722B434D698A
:103B200023F0040315438A692A434260846149688B
:103B30004163036230BD0000002C014030B5026AD1
:103B4000036A23F010030362436884690D6824F458
:103B5000E64444EA05248D6822F0200242EA051278
:103B60000B4DA8420ED1CD6822F0800242EA051228
:103B70004D6923F4406343EA85038D6922F04002D6
:103B800043EA85034360846149688163026230BD12
:103B9000002C014030B5036A026A22F4807202628E
:103BA0004268C46923F4007324F073050C682C4345
:103BB0008D6843EA05230C4DA8420ED1CD6823F44D
:103BC000006343EA05234D6922F4405242EA05129C
:103BD0008D6923F4806342EA05124260C46149683A
:103BE000C163036230BD0000002C014030B5046A9F
:103BF000026A22F4805202624268C3690D6823F4AB
:103C0000E64343EA05238D6824F4005444EA05346E
:103C1000064DA84204D14D6922F4804242EA851241
:103C20004260C36149680164046230BD002C0140F8
:103C300010B5036A046A24F001040462846924F064
:103C4000F00444EA021423F00A020A438461026287
:103C500010BD10B5036A046A24F01004046284697C
:103C600023F0A00324F4704444EA023243EA011131
:103C70008261016210BD01680C3151E8002F22F40D
:103C8000907241E80023002BF5D10168143151E80E
:103C9000002F22F0010241E80023002BF5D1016B37
:103CA000012909D101680C3151E8002F22F01002DE
:103CB00041E80023002BF5D1202180F8421000219B
:103CC0000163704770B5044600680169E26821F439
:103CD0004051114301612169A068084361690843AB
:103CE0002168CA6841F20C639A430243CA602068A3
:103CF0004169A26921F44071114341611E49206864
:103D0000884202D1FEF760FA01E0FEF74DFA00EBBF
:103D1000C00101EB0012606864218000B2FBF0F387
:103D2000B3FBF1F36FF018067343B2FBF0F5B2FB8F
:103D3000F0F605EB8305322303EB0515B5FBF1F532
:103D4000B6FBF1F605F0F00505EB0615B2FBF0F653
:103D5000B2FBF0F0B0FBF1F06FF01802504306EB4D
:103D6000800003EB0010B0FBF1F0216800F00F00C1
:103D70002844886070BD0000003801402DE9F843F8
:103D8000984617460D460446089E24E0701C22D033
:103D9000FDF7D4FCA0EB0800B0421AD8CEB12068E1
:103DA000C168490717D5802D15D0402D13D0016863
:103DB000C94309070FD401680025406800902046D8
:103DC000FFF759FF0820606484F840500120BDE8E7
:103DD000F8830320FBE72068006835EA000004D080
:103DE0000020B842D2D00020F1E70120F9E7FEE739
:103DF000490050EAC12018BF04204A0D18BF40F006
:103E0000010040F2FF72B2EB515F08BF40F00200C8
:103E1000012808BF052070470907090E002804DBA8
:103E200000F1E02080F80014704700F00F0000F16E
:103E3000E02080F8141D704730380A2801D2012094
:103E400070470020704770B50C46054601F0AFFB87
:103E500000F07040B0F1005F07D024F00040C0F1E6
:103E6000FF40C00F04BF204670BD284670BD70B52E
:103E70000C46054601F09BFB00F07040B0F1004F8E
:103E800007D024F00040C0F1FF40C00F04BF20461F
:103E900070BD284670BD00001FB5FEF759F8FFF74A
:103EA0007CFDFFF7D7F9FFF741FAFFF75DFAFFF75F
:103EB00079FAFFF7E3FA3348FFF779F90126F002C0
:103EC000314C4110CDE90014CDE902062346002211
:103ED0002E492F48FFF7A7FC00254021802003959D
:103EE0000091CDE901402A48234604222749383071
:103EF000FFF799FC00220121052000F03FFD254C31
:103F000000220821A060052000F038FD012160603A
:103F10000022084600F032FDE06000221C2105204E
:103F200000F02CFD2061A16821B1616811B1E16848
:103F300001B108B9FDF7A9FA0220CDE90005002377
:103F4000802215A1164800F065FFCDE90065002329
:103F5000802214A1164800F05DFF0320CDE9000582
:103F60000023802213A1174800F054FFCDE900651B
:103F70000023802214A1164800F04CFF00F028FC1A
:103F8000FEE70000E00000200008014034010020AE
:103F9000C40100200000002053656E736F7273002F
:103FA0005D35000853746570706572730000000021
:103FB000311400084D616E75616C436F6E74726FE1
:103FC0006C000000B1340008494E41323139000024
:103FD000413700082DE9F041184C0F460546E668C8
:103FE0002068001D00F0B6FA38B9206890F82C104F
:103FF00001208840216981432161681C07D137B1C4
:104000002168BDE8F0410E48091D00F0E7BA2068BC
:104010003544B5424560216805D2A06BBDE8F0414A
:10402000091D00F0C3BA606B091D00F0BFFAA06A59
:10403000854200D2A562BDE8F08100002400002086
:10404000640500202DE9F041054600F0D3FA2E4C1E
:10405000A068401CA06020682C4F10B1606940B37C
:104060002DE02560A068012829D1002606EB8600F6
:1040700007EB800000F08CFA761C072EF6D323485D
:104080008C3000F085FA2148A03000F081FA1F48FA
:10409000B43000F07DFA1D48C83000F079FA1B48B2
:1040A000DC3000F075FA19488C3060631430A0637E
:1040B00005E02068E96AC06A884200D82560606A25
:1040C000401C6062E96A0120226988401043206137
:1040D00001EB810007EB8000291D00F07FFA00F062
:1040E000A9FA606900280CD02068E96AC06A884291
:1040F00007D207494FF080500860BFF34F8FBFF3DE
:104100006F8FBDE8F08100002400002088040020AB
:1041100004ED00E030B4026C0B46002A0BD0C168FD
:104120001144C1608468A14201D30168C16030BC00
:104130001846FCF75BB930BC70472DE9F041856B40
:10414000174604460026026C82B1C7B1E068FCF74E
:104150004DF9E168206C091AE1602268914202D2AF
:10416000A168081AE060022F16D017E02068A8B9ED
:10417000A06800F01BFF06460020A0600EE060680B
:10418000FCF734F9216C606808446060A1688842DB
:1041900004D32068606001E005B16D1E6D1CA5634D
:1041A0003046BDE8F08110B5044690F8510058B192
:1041B00001280CD002280FD0502080F31188BFF3C3
:1041C0004F8FBFF36F8FFEE7206B00F047FA20465A
:1041D000BDE8104000F042BA10BD000010484FF496
:1041E0004061420706D0C01D0D4920F00700411A6A
:1041F000C1F540610B4A00230144C2E900030839BC
:10420000183A21F0070111604B600B600B1AC0E9EE
:10421000001393604FF000405360506170470000FE
:104220007805002078000020144E154CA6F1C80730
:104230004FF08058DFF84C9012E000BF00F0DAF940
:10424000F068C568281D00F085F9A068401EA060D0
:104250006068401E606000F0EDF92846FFF7A3FF9C
:1042600060680028EAD138680128F9D9C9F80080C7
:10427000BFF34F8FBFF36F8FF2E7000050050020B0
:104280002400002004ED00E00346009829B10260FC
:10429000C0E90F31012100F093BB0060F8E72DE980
:1042A000F0479A46DDE9098481466FF00303206BED
:1042B00003EB82021044089E20F00707780707D01E
:1042C000502080F31188BFF34F8FBFF36F8FFEE74D
:1042D000002561B1002023180A5C83F834200A5CB1
:1042E00012B1401C1028F6D384F8435001E084F842
:1042F0003450072E00D30626E662C4E91165201D5E
:1043000000F051F904F1180000F04DF92461C6F1F4
:1043100007006462A061E56484F850505246494643
:10432000384600F005F92060B8F1000F01D0C8F858
:104330000040BDE8F087000030B5114900E01146AB
:104340000A688242FBD34B685C18844203D1406800
:1043500018444860084643681C18944209D1084C28
:10436000183C2468A24209D052681A4442600A6884
:1043700012680260814200D0086030BD0460F9E735
:104380007800002010B5044600F034F9A06B28B185
:104390005FF0000400F04EF9204610BD0124F9E75B
:1043A0000648416B096829B1416BC968C968496809
:1043B000816270474FF0FF31FAE7000024000020CF
:1043C00008484068401C4FF0500080F3118804D02A
:1043D000BFF34F8FBFF36F8FFEE7BFF34F8FBFF376
:1043E0006F8FFEE7800000202DE9F041044600F0C9
:1043F00001F994F9455004F1240609E0606A48B1D6
:10440000304600F01FFE08B100F0C4F96D1E6DB219
:10441000002DF3DC4FF0FF3684F8456000F00AF918
:1044200000F0E8F894F9445004F1100709E020691D
:1044300048B1384600F006FE08B100F0ABF96D1E39
:104440006DB2002DF3DC84F84460BDE8F04100F06B
:10445000F1B800002DE9F0410546002700F0EEF923
:10446000324E306808B9FFF7B9FE706905424ED187
:10447000C5B3083568070ED005F00700C0F1080085
:104480000544680707D0502080F31188BFF34F8F91
:10449000BFF36F8FFEE72DB37068854237D823488E
:1044A000183001460C6801E020460C466168A942BC
:1044B00002D221680029F7D131688C4227D00768E1
:1044C0002168016060680837411B10290FD9601905
:1044D000420708D0502080F31188BFF34F8FBFF3FD
:1044E0006F8FFEE713E041606560FFF725FF6168AD
:1044F0007068401A7060B268904200D2B060706913
:1045000001430020C4E90001F068401CF06000F0A5
:10451000D3FD780707D0502080F31188BFF34F8F69
:10452000BFF36F8FFEE73846BDE8F08160000020E2
:1045300010B5031F4FF080741C601B1F21F0010198
:104540001960191F024B0B60143940380A6010BD06
:10455000C1430008D0E9013201699A60D0E9012322
:104560005A604A68824201D182684A600022026130
:104570000868401E0860086870470000034B03602D
:1045800003F154000860802010607047340200205E
:1045900000F108014FF0FF32C0E90112C160016172
:1045A00000210160704700210161704730B50B6840
:1045B0005A1C02D000F1080202E0026904E022461F
:1045C000546825689D42FAD953684B6099608A60A7
:1045D000516008610168491C016030BD42684A6051
:1045E00093688B6093685960916008610168491C09
:1045F00001607047502080F31188BFF34F8FBFF3E5
:104600006F8F0A494868401C486001280CD108484F
:10461000006810F0FF0F07D0502080F31188BFF31F
:104620004F8FBFF36F8FFEE77047000080000020C0
:1046300004ED00E00849486828B1401E486001D1F7
:1046400080F311887047502080F31188BFF34F8F9B
:10465000BFF36F8FFEE700008000002070B50028D8
:104660002AD0164DA0F1080460686969084207D194
:10467000502080F31188BFF34F8FBFF36F8FFEE799
:1046800022683AB1502080F31188BFF34F8FBFF3F7
:104690006F8FFEE78843606000F0D0F8606869685B
:1046A000084468602046FFF747FE2869401C2861DF
:1046B000BDE8704000F000BD70BD0000600000204B
:1046C0004FF0E02000210161816105494FF47A72C9
:1046D0000968B1FBF2F1491E416107210161704790
:1046E0002000002010B5FBF7A3FD114910280ED3C0
:1046F00000F1E02090F8F0030A78904207D25020B1
:1047000080F31188BFF34F8FBFF36F8FFEE7094827
:104710000068896800F4E060884207D9502080F37F
:104720001188BFF34F8FBFF36F8FFEE710BD0000FE
:10473000800000200CED00E010B5020014D00F48FE
:10474000006B38B1502080F31188BFF34F8FBFF357
:104750006F8FFEE700F072F800211046FFF73AFC79
:1047600000F0AAFC002807D105494FF080500860EE
:10477000BFF34F8FBFF36F8F10BD000024000020E8
:1047800004ED00E002490A6A0260C96841607047AE
:104790002400002001490120C86170472400002046
:1047A00010B50C4650B1094909681831FFF7FEFEF3
:1047B0002046BDE810400121FFF70CBC502080F3DB
:1047C0001188BFF34F8FBFF36F8FFEE724000020E7
:1047D00010B586B00024039405AA04A903A8049484
:1047E000FFF7CCFEDDE903010094CDE901100023C1
:1047F0000EA11048059A00F03AFB0F490028C86244
:1048000011D0502080F31188BFF34F8FBFF36F8F0B
:104810004FF0FF30886201204861CC6006B0BDE8EF
:10482000104000F041B806B010BD000049444C45AE
:104830000000000029420008240000200248016B0B
:10484000491C016370470000240000201448016BDC
:1048500011B10121C16170470021C1610169B1FA43
:1048600081F1C1F11F0101EB81020E4951F82230A3
:104870006BB101EB820101F108034A6852684A609A
:104880009A4201D152684A60D16801607047502055
:1048900080F31188BFF34F8FBFF36F8FFEE70000E7
:1048A00024000020880400201CB5264908780190C7
:1048B000FF20087008788DF800009DF800009DF832
:1048C000002000F0F000904207D0502080F31188C3
:1048D000BFF34F8FBFF36F8FFEE79DF800001A4CB8
:1048E00000F0500020700720A06005E09DF8002037
:1048F00052008DF80020401E9DF800201206F5D4CD
:10490000A060032807D0502080F31188BFF34F8F99
:10491000BFF36F8FFEE74FF44070A06001980870FE
:104920000A48016841F470010160016841F070417A
:104930000160FFF7C5FE00206060FBF743FC00202C
:104940001CBD000000E400E08000002020ED00E03D
:1049500010B5502080F31188BFF34F8FBFF36F8FD6
:1049600000F0BEFA18B104494FF0805008600020F2
:1049700080F3118810BD000004ED00E0F8B5174683
:104980000E46050013D005FB06F04830FFF762FD28
:1049900004000AD0002084F8460004F148023B4697
:1049A000314628460094FFF76FFC2046F8BD5020A2
:1049B00080F31188BFF34F8FBFF36F8FFEE70000C6
:1049C00070B50D46040025D0FFF714FED4E90F2082
:1049D000216802FB0011A1600021A16321686160D0
:1049E0000A46D4E90F01401E00FB0121E160214687
:1049F0004FF0FF3001F8440F487004F110008DB102
:104A0000FFF7C6FD04F12400FFF7C2FDFFF712FE19
:104A1000012070BD502080F31188BFF34F8FBFF38A
:104A20006F8FFEE721690029F0D000F00BFB002812
:104A3000ECD004494FF080500860BFF34F8FBFF3B4
:104A40006F8FE3E704ED00E02DE9FF4782B01D46DC
:104A50008A464FF00008040003D0BAF1000F08D0D6
:104A600011E0502080F31188BFF34F8FBFF36F8F99
:104A7000FEE7206C38B1502080F31188BFF34F8FD0
:104A8000BFF36F8FFEE7022D0AD1E06B012807D03C
:104A9000502080F31188BFF34F8FBFF36F8FFEE775
:104AA00000F010FA3F4F4FF000094FF0805648B920
:104AB000049838B1502080F31188BFF34F8FBFF3B3
:104AC0006F8FFEE7FFF796FDA06BE16B884207D37F
:104AD000022D05D00498D0B1B8F1000F1AD01EE015
:104AE0002A4651462046FFF728FB616A19B104F1B6
:104AF000240000F0A7FA20B13E60BFF34F8FBFF350
:104B00006F8FFFF797FD012006B0BDE8F087FFF734
:104B100091FD22E06846FFF735FE4FF00108FFF7F0
:104B200089FDFFF78BFEFFF765FD94F94400401CFB
:104B300001D184F8449094F94500401C01D184F8D7
:104B40004590FFF777FD04A9684600F029F930B1D8
:104B50002046FFF749FC00F0AFFA0020D4E7FFF74A
:104B600049FDA06BE16B884213D1FFF763FD04F1AF
:104B700010000499FFF714FE2046FFF735FC00F003
:104B80009BFA00289ED13E60BFF34F8FBFF36F8F1B
:104B900098E7FFF74FFD2046FFF726FC00F08CFA60
:104BA00090E7000004ED00E02DE9F0471F46904635
:104BB0008946040003D0B9F1000F08D011E050205D
:104BC00080F31188BFF34F8FBFF36F8FFEE7206C28
:104BD00038B1502080F31188BFF34F8FBFF36F8F30
:104BE000FEE7022F0AD1E06B012807D0502080F3A6
:104BF0001188BFF34F8FBFF36F8FFEE7FFF772FD92
:104C00005020EFF3118680F31188BFF34F8FBFF36D
:104C10006F8FA06BE16B884206D3022F04D0002077
:104C200086F31188BDE8F08794F94550A06B3A46A9
:104C300049462046FFF781FA681C04D06D1C84F8B1
:104C400045500120ECE7606A0028FAD004F1240006
:104C500000F0F8F90028F4D0B8F1000FF1D00121EC
:104C6000C8F80010EDE700002DE9F747002683B0F3
:104C70008A46040003D0BAF1000F08D011E050209A
:104C800080F31188BFF34F8FBFF36F8FFEE7206C67
:104C900038B1502080F31188BFF34F8FBFF36F8F6F
:104CA000FEE700F00FF9DFF8F4804FF000094FF055
:104CB000805748B9059838B1502080F31188BFF368
:104CC0004F8FBFF36F8FFEE7FFF794FCA56BC5B165
:104CD00051462046FFF71EFA6D1EA563206950B1AC
:104CE00004F1100000F0AEF928B1C8F80070BFF36D
:104CF0004F8FBFF36F8FFFF79DFC012006B0BDE81B
:104D0000F087059808B11EB106E0FFF793FC27E095
:104D10006846FFF737FD0126FFF78CFCFFF78EFD95
:104D2000FFF768FC94F94400401C01D184F84490DA
:104D300094F94500401C01D184F84590FFF77AFCB6
:104D400005A9684600F02CF8002820460AD0FFF795
:104D50004BFB00F0B1F92046FFF714FB0028B3D05D
:104D60000020CBE7FFF70EFB90B104F1240005997A
:104D7000FFF716FD2046FFF737FB00F09DF90028EE
:104D8000A2D1C8F80070BFF34F8FBFF36F8F9BE7BE
:104D90002046FFF729FB00F08FF995E704ED00E0CE
:104DA0002DE9F0410C46050011D0C4B1FFF722FCFB
:104DB000174BDA686E682068911B471C17D02F6864
:104DC0001B6A9F4219D0964217D8012410E0502048
:104DD00080F31188BFF34F8FBFF36F8FFEE7502032
:104DE00080F31188BFF34F8FBFF36F8FFEE700246E
:104DF000FFF720FC2046BDE8F081884205D9401A23
:104E000020602846FFF7BEFCF1E700202060DCE7C9
:104E1000240000202DE9FF5F8346DDE90E879946D7
:104E200016468A469000FFF715FB05001CD054205B
:104E3000FFF710FB040014D00020256384F8510014
:104E4000CDE90240CDE900874B46324651465846EF
:104E5000FFF725FA2046FFF7F5F8012004B0BDE87A
:104E6000F09F2846FFF7FAFB4FF0FF30F6E7F0B56A
:104E700085B0DDE90B640A9DA6B1DCB1542700972B
:104E80002663022684F85160002604AFCDE902466D
:104E9000CDE90057FFF703FA2046FFF7D3F804984F
:104EA00005B0F0BD502080F31188BFF34F8FBFF3E2
:104EB0006F8FFEE7502080F31188BFF34F8FBFF351
:104EC0006F8FFEE70548416919B1006B18B10020EA
:104ED0007047012070470220704700002400002026
:104EE0002DE9F0412F4C0026206B28B1A069401C11
:104EF000A0613046BDE8F081E5686D1CE56013D126
:104F0000606B006838B1502080F31188BFF34F8F79
:104F1000BFF36F8FFEE7606BA16B6163A063206AD4
:104F2000401C2062FFF73CFAA06ADFF87C808542D3
:104F300009D3606B0068A0B1606BC068C76878680F
:104F4000854211D2A0622068C06A00EB800158F847
:104F50002100012800D90126E0690028C9D00126D6
:104F6000C7E74FF0FF30EDE7381DFFF7F3FAB86AF7
:104F700018B107F11800FFF7EDFAF96A012022696C
:104F800088401043206101EB810108EB8100391D4D
:104F9000FFF724FBF86A2168C96A8842C9D3012651
:104FA000C7E70000240000208804002070B504003A
:104FB0004FF0000140D0214D2868844207D0502096
:104FC00080F31188BFF34F8FBFF36F8FFEE7A06CA4
:104FD00038B1401EA064636CE26A9A422CD040B1A2
:104FE0002AE0502080F31188BFF34F8FBFF36F8FFB
:104FF000FEE7201DFFF7AEFA114A012150B9E06A21
:1050000000EB800352F8233023B92B6901FA00F03A
:1050100083432B61606CE062C0F10700A061E06A2D
:105020002B6981401943296100EB800002EB80006D
:10503000211DFFF7D3FA0121084670BD240000208E
:10504000880400202DE9F041C068C468ACB104F1C7
:1050500018000746FFF77EFA154D286B0126A0B110
:1050600039461448FFF7BAFAE06A2968C96A8842E3
:105070001CD90120EE61BDE8F081502080F3118839
:10508000BFF34F8FBFF36F8FFEE7201DFFF762FA6C
:10509000E16A2A6906FA01F01043286101EB8100F8
:1050A0000449B43901EB8000211DDBE70020E2E771
:1050B000240000203C0500202DE9F0472C4D002461
:1050C0002746286B38B1FFF795FA286B401E2863F6
:1050D000286B40B146E0502080F31188BFF34F8F1A
:1050E000BFF36F8FFEE7A968224E0120D1B3A6F16E
:1050F000B40980463068E8B1F068C46804F118006B
:10510000FFF728FA201DFFF725FAE06A2A6908FA56
:1051100000F11143296100EB800109EB8100211DA1
:10512000FFF75CFAE06A2968C96A8842E2D3C5F8E9
:105130001C80DFE70CB1FFF733F9AC6944B1464698
:10514000FFF7CEFE00B1EE61641EF9D10020A86128
:10515000E86938B10849012738070860BFF34F8F65
:10516000BFF36F8FFFF766FA3846BDE8F08700009F
:10517000240000203C05002004ED00E010B50029CB
:105180000AD00878002807D005487844FBF72AFDA4
:10519000002801D0002010BD0248784410BD000056
:1051A0006E0B0000660B000021F00042A2F160527D
:1051B000B2F5801F01F0004328BFD2F17F6C0BD9FC
:1051C0005FEA001C43EAC20242EB507018BF70470E
:1051D00028BF20F001007047B2F5801FBCBF184601
:1051E00070474FEA410C1CF5001F02D2084600F040
:1051F000F6BB70B500F0CAF800000089FFF7F6BFF3
:105200004FF00040A0F58000704710F0004248BF0A
:105210004042B0FA80F310FA03F10AD0C3F11D0343
:1052200003F580634FEA415002EB035202EBD121B8
:1052300070474FF000007047DFF848C170B51CEAB6
:10524000111E1EBF1CEA13159EEA0C0F95EA0C0FE7
:1052500000F06F8081EA030423EA4C134EEAD47E07
:1052600021EA4C1141F4801143F48013AE44A1FBB8
:10527000024CA0FB0365AEF17F7E361955EB0C05A1
:10528000A1FB034C4CF10003A0FB021C16EB0C0627
:10529000654153F10003094218BF46F0010613F4BB
:1052A000007F0BD14FEA03314FEA0530340341EA66
:1052B000155140EA16506FF003020AE04FEAC3218D
:1052C0004FEAC520F40241EA555140EA56506FF0CA
:1052D000020202EB2E4201EB025585EACE710AD0A2
:1052E0005FEA440C18BF24F0004450F1000041F183
:1052F000000120EAD47040F2FE7C624500D270BD0D
:10530000A84214BF4FF080444FF04044002E08BF25
:105310000024BEF1806FA8BFA1F1C041BDE870407C
:1053200080F282804FF0000001F1C04101F00041A5
:1053300070479EEA0C0F0CEA131518BF95EA0C0F84
:1053400006D04FF0000081EA030E0EF0004170BD60
:1053500000F01CF88900013E00F007B800F009B821
:105360004FEA430C5FEA5C5C08D081EA030100F07D
:105370005BB84FEA410C5FEA5C5CF6D14FF000008D
:10538000014970470000FF070000F87F0EF1020E90
:105390002EF0030E5EF8046B364205D4012A43EB6F
:1053A000030515F5001F12D8012841EB010C1CF56F
:1053B000001F0CD80ED14FEAD17C15F5001F0CEB65
:1053C0004C0C0CF1020C08BF4CEBD37C04E04FF00A
:1053D000080C01E04FEAD37C0CEB4C0526FA05F6ED
:1053E00006F00706B6F1040C06D20EEB860CBDE8FB
:1053F00070404CF0010C6047DFE80CF0090B020232
:105400004FF000414FF00000A1F5002170BD19469A
:105410001046012851EB010418BFD4F5001484BFD5
:10542000002001F0004170BD0808A0F500114FEA0E
:105430003101704743004FEAD30C4FEA3C0C434024
:105440001FBF40070CF1605113F0FE4F70471CF076
:10545000006F03D100200CF0004170470CF00043B6
:1054600043EA507010B540EACC0000F072FA00BF79
:10547000000000924FEA0001FFF7D6BF4FF0004155
:105480004FF00000A1F500217047000090EA010FE5
:1054900048BF81F0004100F1E082421A3CBF801A0F
:1054A00089184FEAD0524FF07F4C1CEA410FA2EB13
:1054B000D15318BF9CEA026F00F03B804FF0004CC4
:1054C0004CEA00204CEA012121FA03FC10EB0C0C01
:1054D0001ED202F1FF325FEA1C2040EBC25038BFFF
:1054E00070471CF07F0F4FEA400C18BFBCF17F4F94
:1054F00038BF7047C3F12003994008BF20F0010076
:10550000BCF17F4F38BF7047A0F1C04000F067BAD0
:105510004FEA3C00000A40EBC25028BF1CF0FF0FCE
:105520004FEA400CE6D018BFBCF17F4F38BF704740
:10553000EAE79CEA026F05D010EA5C0F08BF00F0B2
:105540000040704710B500F004FA00BF64FBBE3E97
:10555000014800F0F2BA00BF0000C07F50EA010C21
:1055600000F113801CF5000F58BFBCF5000F01D4EB
:105570008842704707D710F5000F58BF11F5000F8C
:1055800022D488427047894270471CF5000F04D529
:10559000BCF5000FF7D5814270474FF0807C1CEBC3
:1055A000400F38BF1CEB410F0ED28142704710B53F
:1055B000FFF7D4FFEFF3008020F0104038BF40F039
:1055C000004080F3008810BDBDE8104010B500F029
:1055D000C0F900BF0000000900F007B84FF04040DC
:1055E00010F1004FEFF300807047401058BFC0F13A
:1055F0004040491058BFC1F140418142EFF3008063
:10560000704700004FF47F0C1CEAD0121EBF1CEA4A
:10561000D11392EA0C0F93EA0C0F00F0858090EA08
:10562000010F48BF42F4807240F4000C41F40000C6
:105630002CF07F4120F07F4000B58142A2EB0302B5
:105640000FF2081CACEB504EC0F100009EF800E0D9
:105650004FEA4E0E00FB0EFC38BF49004FEA2C1CEF
:1056600002F5FA020CFB0EF34FEACE1E4FEA112CA4
:105670004FEAC1210EEB635E42EB22420EFB0CFCB3
:105680004FEA1C5300FB03114FEA112C4FEA013182
:105690000EFB0CFC4FEADC4C00FB0C11C14228BF96
:1056A00009184CEB03335DF804EB10EB410143EBBD
:1056B000C250B2F57C0F38BF704729D512F0F00FF9
:1056C0001CBF00F1C04000F00040704700818283A1
:1056D0008485868788898B8C8D8E8F919293959601
:1056E00097999A9C9D9FA0A2A3A5A7A8AAACAEB08B
:1056F000B2B3B5B7B9BCBEC0C2C5C7C9CCCED1D490
:10570000D7D9DCDFE2E6E9ECF0F3F7FAFE000000BF
:105710004FEA400C0CF1807CBCF17E4F28BF7047F3
:10572000B0F1C04000F05BB990EA010F0CEAD11370
:1057300048BF42F48072624538BF634507D213F414
:105740007F0F16D080EA010000F00040704710B5CE
:1057500000F0FFF8097EFC3E00F005B880EA010089
:1057600000F00040704780EA010000F0004000F0C7
:1057700036B912F47F0F04BF0248704780EA010077
:1057800000F02DB90000C07F41000B0ED3F19E0246
:1057900008D950F400034FEA032323FA02F048BF6C
:1057A0004042704710B500F0D4F800BF4992248001
:1057B000002070476FF0004282EA2000704700002E
:1057C000B0FA80F310FA03F2C3F19D030AD0D905B1
:1057D00001EB1220530638BF704700F1010008BFEB
:1057E00020F001007047000050EA010C00F1138026
:1057F0001CF5000F58BFBCF5000F01D4884270475C
:1058000007D710F5000F58BF11F5000F15D48842C7
:105810007047894270471CF5000F04D5BCF5000F96
:10582000F7D5814270474FF0807C1CEB400F38BFAA
:105830001CEB410F01D28142704710B500F089F88E
:10584000922449004FF000504FF08051FFF7CDBE39
:105850004FF47F0C1CEAD0121EBF1CEAD11392EA4F
:105860000C0F93EA0C0F00F0478090EA010F48BF3D
:1058700042F480724FF0004C4CEA00204CEA0121C7
:1058800002EB0302A0FB0113A2F50002002918BFDE
:1058900043F001035B0028BF4FEA330342EB22428F
:1058A0005FEA132C4CEBC2502EBFBCEB436FB2F53A
:1058B0007C0F70474FEA036CBCF1004F08BF20F02B
:1058C0000100B2F57C0F38BF70470BD582F0FF02A4
:1058D00012F5803FC8BF704700F1C040D8BF00F04C
:1058E0000040704700F5000C5FEA4C0C48BF704761
:1058F000B0F1C04000F073B890EA010F0CEAD11388
:1059000048BF42F48072624538BF634504D280EAE2
:10591000010000F00040704710B500F01AF800BF19
:105920008900013E00F007B800F009B85FEA410CB9
:105930005FEA1C6C08D080EA010000F050B85FEA12
:10594000400C5FEA1C6CF6D14FF00040A0F58000DF
:1059500070470EF1020E2EF0030E5EF8044B244247
:1059600004D44FEA4102B2F17F4F11D84FEA40030D
:10597000B3F17F4F0CD80ED14FEAD07CB2F17F4FFC
:105980000CEB4C0C0CF1020C08BF4CEBD17C04E08E
:105990004FF0080C01E04FEAD17C0CEB4C0324FAE9
:1059A00003F404F00704B4F1040C06D20EEB840CEB
:1059B000BDE810404CF0010C6047DFE80CF0070830
:1059C00002024FF00040A0F5800010BD08464200E2
:1059D00018BFD2F1807288BF00F0004010BDFF21D7
:1059E00041EAD050C005704751EA000C00F1138025
:1059F0001CF5000F58BFBCF5000F01D48142704761
:105A000007D711F5000F58BF10F5000F15D48142CC
:105A10007047894270471CF5000F04D5BCF5000F94
:105A2000F7D5884270474FF0807C1CEB410F38BFA0
:105A30001CEB400F01D28842704780EA010081EAE6
:105A4000000180EA0100FFF7F8BE000090EA010FB4
:105A500048BF81F000413FF520AD421A04D882F0E2
:105A60000042A0EB020011444FEAD0524FF07F4CAD
:105A70001CEA410FA2EBD15318BF9CEA026F4AD037
:105A80004FF0004C4CEA00204CEA012121FA03FCC3
:105A9000B0EB0C0C0FD412F0FE0F36D05FEA4C00C6
:105AA0001DD5001240EBC25038BF70471CF03F0FAD
:105AB00018BF70470BE0A2F101025FEA1C2040EB27
:105AC000C25038BF70471CF07F0F18BF7047C3F13A
:105AD0002003994014BF401E20F001007047800849
