:020000040800F2
:10000000C817002021020008AF2000088D19000841
:10001000AD2000084104000875270008000000001A
:10002000000000000000000000000000890100083E
:100030007904000800000000CD010008C723000873
:100040003B0200083B0200083B0200083B0200089C
:100050003B0200083B0200087B04000889040008FA
:100060003B0200083B0200088F0400083B02000826
:100070003B0200083B0200083B0200083B0200086C
:100080003B0200083B0200083B0200083B0200085C
:100090003B0200083B0200083B02000895040008F0
:1000A000612400086D2400083B0200083B020008A0
:1000B0003B0200083B0200083B0200083B0200082C
:1000C0003B0200083B0200083B0200083B0200081C
:1000D0003B0200083B0200083B0200083B0200080C
:1000E000810400083B0200083B02000800F002F80F
:1000F00000F03AF80AA090E8000C82448344AAF188
:100100000107DA4501D100F02FF8AFF2090EBAE885
:100110000F0013F0010F18BFFB1A43F0010318473B
:100120001441000034410000103A24BF78C878C15F
:10013000FAD8520724BF30C830C144BF04680C60ED
:10014000704700000023002400250026103A28BF35
:1001500078C1FBD8520728BF30C148BF0B60704739
:100160001FB51FBD10B510BD00F01BF91146FFF7FC
:10017000F7FF02F039FB00F039F903B4FFF7F2FFA3
:1001800003BC00F041F90000224B19680868B0E890
:10019000F00F80F30988BFF36F8F4FF0000080F3FA
:1001A00011884EF00D0E70470000000006480068F0
:1001B000006880F3088862B661B6BFF34F8FBFF363
:1001C0006F8F00DF00BF00BF08ED00E0EFF3098094
:1001D000BFF36F8F0F4B1A6820E9F00F106008B55E
:1001E0004FF0500080F31188BFF34F8FBFF36F8F34
:1001F00002F0AEFF4FF0000080F31188BDE8084028
:1002000019680868B0E8F00F80F30988BFF36F8FB2
:10021000704700BF1C000020EFF30580704700000E
:100220000948804709480047FEE7FEE7FEE7FEE78A
:10023000FEE7FEE7FEE7FEE7FEE7FEE704480549C6
:10024000054A064B704700003D240008ED000008F9
:10025000C8110020C8170020C8130020C8130020B0
:10026000032A40F2308010F0030C00F0158011F8E2
:10027000013BBCF1020F624498BF11F801CB00F8BA
:10028000013B38BF11F8013BA2F1040298BF00F80E
:1002900001CB38BF00F8013B11F0030300F04F80A1
:1002A000083AC0F0088051F8043B083A51F804CBF2
:1002B000A0E80810F5E7121D5CBF51F8043B40F8B8
:1002C000043BAFF30080D20724BF11F8013B11F8C3
:1002D00001CB48BF11F8012B24BF00F8013B00F807
:1002E00001CB48BF00F8012B70474FF0000200B56A
:1002F000134694469646203922BFA0E80C50A0E849
:100300000C50B1F12001BFF4F7AF090728BFA0E8F6
:100310000C5048BF0CC05DF804EB890028BF40F8C2
:10032000042B08BF704748BF20F8022B11F0804F04
:1003300018BF00F8012B704770477047704710B521
:10034000203AC0F00B80B1E81850203AA0E81850CD
:10035000B1E81850A0E81850BFF4F5AF5FEA027C8E
:1003600024BFB1E81850A0E8185044BF18C918C0FD
:10037000BDE810405FEA827C24BF51F8043B40F89E
:10038000043B08BF7047D20728BF31F8023B48BF83
:1003900011F8012B28BF20F8023B48BF00F8012BC1
:1003A0007047754600F02CF8AE4605006946534686
:1003B00020F00700854618B020B5FFF73FFFBDE8E5
:1003C00020404FF000064FF000074FF000084FF0BC
:1003D000000B21F00701AC46ACE8C009ACE8C0094D
:1003E000ACE8C009ACE8C0098D46704710B50446BA
:1003F000AFF300802046BDE81040FFF7BEBE00000E
:10040000004870476811002001491820ABBEFEE784
:1004100026000200704700001CB5642100910223F1
:1004200001AA462100F058FABDF8040040BA03F0D2
:10043000C1FCBDE81C40014903F0DEBB9A99993F1D
:10044000FEE700001CB50A4C4FF0FF352A4669460E
:10045000606803F08BF80128F8D10648009901F094
:100460005DFF04480199343001F058FFEEE70000C9
:1004700000000020BC0100207047012000F060B89F
:100480004FF4805000F05CB8022000F059B8102002
:1004900000F056B8202000F053B8000070B50446B4
:1004A00000F050F90546601C02D00448007804446E
:1004B00000F048F9401BA042FAD370BD0C000020A8
:1004C0001CB51D4C00220192217810282CD008DC8C
:1004D000012823D0022820D101291ED18DF8002027
:1004E0000AE0202824D0B0F5805F16D1012914D16C
:1004F0005FF003008DF80000002301AA6946A068A0
:1005000002F0D4FF0198002807D00C494FF080502A
:100510000860BFF34F8FBFF36F8F1CBD11B1002078
:1005200020701CBD0120FBE70129FAD10120E1E781
:100530000129F6D10220DDE70000002004ED00E0F3
:10054000044910B50A68024202D00860FFF7B8FFFC
:1005500010BD0000140401402DE9F84FDFF8B891F8
:100560000024A9F1040B23460F2709F1040AABF17B
:10057000040EC9E00125A5402A40AA427DD1674E5C
:10058000D1F804C0ACEB0608B44532D014DCBCF1A1
:10059000030F3AD009DCBCF1000F2AD0BCF1010FE7
:1005A0001CD0BCF1020F31D11DE0BCF1110F17D0EE
:1005B000BCF1120F2AD119E0B8F5881F19D006DC5A
:1005C000B8F5803F15D0B8F5801F1FD111E0B8F500
:1005D000001F0ED0B8F5041F18D10AE0CB6815E053
:1005E000CB681B1D12E0CB6808330FE0CB680C33DF
:1005F0000CE08B682BB1012B4FF0080303D0456151
:1006000004E0042302E0056100E00023FF2A01D892
:10061000064601E000F104064FEA840501D9A5F180
:100620002005D6F8008007FA05FC28EA0C0803FA32
:1006300005F548EA0508C6F800804D68ED0062D56A
:10064000374DAE6946F00106AE61AD6924F0030690
:1006500005F001050095334D06EB050CDCF808505C
:10066000A607360F07FA06F825EA0805DFF8B8806E
:10067000404503D14FF0000817E044E0DFF8AC80BC
:10068000404502D14FF001080FE0DFF8A48040455B
:1006900002D14FF0020808E0DFF89880404502D10F
:1006A0004FF0030801E04FF0040808FA06F848EAA2
:1006B0000508CCF808804D68D9F80060ED024D4679
:1006C00001D5164300E096432E604D68DAF80060CD
:1006D000AD02554601D5164300E096432E604D68A5
:1006E000DBF80060AD035D4601D5164300E096439C
:1006F0002E604D68DEF80060ED03754601D51643A7
:1007000000E096432E60641C0D682A46E5407FF4A5
:1007100031AFBDE8F88F000008040140000011105F
:10072000001002400000014000080140000C0140A0
:1007300000100140001401400AB101617047090432
:10074000FBE7000001488068704700000C000020B3
:1007500070B5040025D094F83D00002520B984F838
:100760003C50204600F076FA242084F83D002068B2
:10077000016821F0010101602068016841F4004135
:1007800001602068016821F40041016000F0E2FB93
:100790004D4A6168914201D84C4900E04C49884279
:1007A00001D2012070BD4B492368B0FBF1F15E68B6
:1007B00026F03F060E435E606368934206D94FF40D
:1007C000967359434FF47A73B1FBF3F12368491CD4
:1007D0001E6A26F03F06314319626168914210D8C3
:1007E0004900401EB0FBF1F2521CC2F30B02042A76
:1007F00001D2042022E0B0FBF1F0401CC0F30B005A
:100800001CE0A268F2B301EBC10303EB0116431E27
:10081000B3FBF6F35B1C43F480431B0549D092B352
:1008200001EBC10202EB0111401EB0FBF1F0401CD4
:10083000C0F30B0040F4804040F400402168CA69D6
:100840004CF6FF739A431043C861D4E90710014383
:100850002068026822F0C00211430160D4E903015C
:1008600001432068826848F2FF339A431143816054
:10087000D4E9050108432168CA6822F0FF02104349
:10088000C86001E00EE016E02068016841F0010157
:1008900001602564202084F83D00256384F83E50E3
:1008A000002070BD01EB4106431EB3FBF6F35B1C59
:1008B000B3E70120C2E701EB4101401EB0FBF1F0BC
:1008C000401CC0F30B00B7E7A086010080841E0027
:1008D00000093D0040420F002DE9F84F0025DDF8EA
:1008E0002890984617468A4604460095FFF72AFF47
:1008F000064694F83D0020287AD119230122864922
:100900002046009601F04AF90028F5D194F83C0001
:1009100001286DD0012084F83C0020680168C907D7
:1009200003D1016841F0010101602068016821F4F0
:1009300000610160222084F83D00102084F83E0010
:1009400025646762A4F82A80608D20857348E06280
:1009500033464A465146204601F030F800287CD103
:10096000208DDFF8BC81202768B1012814D002282F
:10097000206801681ED041F48061016020684169EF
:1009800080690090BBE0206841698169009101683D
:1009900041F400710160B2E02068016821F48061D7
:1009A000016072B62068416981690091016841F473
:1009B00000710AE041F40061016072B6206841698B
:1009C00081690091016821F48061016062B696E05E
:1009D000032865D801280CD002284B464FF00002AE
:1009E0004146204600960BD001F0D8F8A8BB0CE099
:1009F00090E032464946204601F076F968BB71E046
:100A000001F0CCF848BB72B633E02068016821F4ED
:100A10008061016072B620680069616A0870606A6E
:100A2000401C6062208D401E2085608D401E6085C8
:100A30003C4846F2A8110068B0FBF1F0C0EBC000E2
:100A400000EB80000090401E009007D020684069B5
:100A5000C04340070DD50098F5E727E044F8305F24
:100A60006773A573206940F02000206162B625738A
:100A70001CE02068016841F4007101602068006991
:100A8000616A0870606A401C6062218D491E218580
:100A9000618D491E618562B621680969017025E092
:100AA00032464946204601F01FF910B10120BDE849
:100AB000F88F20680069616A0870606A401C606293
:100AC000208D401E81B22185608D401E608520688A
:100AD0004269D243520712D4032903D1016821F499
:100AE0008061016020680069616A0870606A401C6A
:100AF0006062208D401E2085608D401E6085208DA7
:100B000000287FF465AF84F83D7084F83E5084F887
:100B10003C50CCE70220CAE7020010000000FFFFB3
:100B200004000100180000202DE9F84F1F469046F0
:100B30008A460446DDF82890FFF704FE054694F83F
:100B40003D0020287FD119230122404920460095ED
:100B500001F024F8002876D194F83C00012872D0E6
:100B6000012084F83C0020680168C90703D10168AE
:100B700041F0010101602068016821F40061016019
:100B8000212084F83D00102084F83E0000262664D1
:100B9000C4F824806785608D20852D48E0622B464F
:100BA0004A465146204600F07FFF90B920684169CF
:100BB0008069009036E02A464946204601F0CCF88C
:100BC00050B1206C042804D12068016841F4007100
:100BD00001600120BDE8F88F606A21680078086133
:100BE000606A401C6062618D491E6185218D491ECD
:100BF00089B2218522685369DB435B070BD451B16D
:100C000000781061606A401C6062608D401E6085E3
:100C1000208D401E20852A464946204600F092FF3E
:100C20000028CED1208D0028C5D154F83D0B016895
:100C300041F400710160202004F81E09E677667710
:100C40000020C7E7FFE70220C4E700000200100011
:100C50000000FFFF30B585B00021009101910291A5
:100C600003911E4D03681E4C122103221D48AB4206
:100C700016D1A36943F00803A361A369039203F0AB
:100C800008030493C023CDE900316946FFF764FCF3
:100C9000E06940F40010E061E06900F4001019E040
:100CA000114DAB4217D1A36943F00803A361A369B7
:100CB000039203F0080304934FF44063CDE900313D
:100CC0006946FFF749FCE06940F48000E061E069B3
:100CD00000F48000049005B030BD000000540040D6
:100CE00000100240000C014000580040024881689A
:100CF00002781144816070470C000020074810B54D
:100D0000016841F010010160032000F07BF80F2022
:100D100000F006F800F024F8002010BD002002408A
:100D200070B50D4D04464FF47A712878B1FBF0F0A0
:100D30000A490968B1FBF0F000F0E2FA48B9102C5A
:100D400007D200222146501E00F03CF800206C60C3
:100D500070BD012070BD00000C00002018000020B4
:100D60000F4808B5816941F001018161816901F095
:100D700001010091C16941F08051C161C069002247
:100D800000F0805000900F21901E00F01BF80548E5
:100D9000416821F0E06141F00071416008BD000050
:100DA0000010024000000140002809DB00F01F0293
:100DB000012191404009800000F1E020C0F80011BD
:100DC00070470000F0B40E4B1B680C46C3F30223BF
:100DD000C3F10705042D00D90425191D072901D2E7
:100DE000002300E0DB1E012606FA05F1491E214022
:100DF00099409E40761E16403143F0BC01F0BBBCCA
:100E00000CED00E0064900F0070208684FF6FF030A
:100E1000184040EA0220034A10430860704700006F
:100E20000CED00E00000FA052DE9F0470F46050043
:100E300061D0434E306800F00700B84209D23068F4
:100E400020F0070038433060306800F00700B842F7
:100E500051D128683B4C810712D5400703D5606803
:100E600040F4E06060602878000703D5606840F4D3
:100E7000605060606068A96820F0F000084360601E
:100E80002878C00728D06868012810D02168022877
:100E900010D0890700292EDA616821F0030101438F
:100EA0006160FFF74FFC804641F288390DE0216810
:100EB0008903EFE78901EDE7FFF744FCA0EB0801A8
:100EC000494502D90320BDE8F0876068696800F0F1
:100ED0000C00B0EB810FEFD1306800F00700B84292
:100EE0000BD9306820F0070038433060306800F0DC
:100EF0000700B84201D00120E5E72878400705D572
:100F00006068E96820F4E0600843606028780007C2
:100F100006D56068296920F4605040EAC10060602D
:100F200000F038F86168084AC1F30311515CC84009
:100F30000649086006480068FFF7F2FE0020C2E795
:100F400000200240001002401C420008180000204F
:100F5000100000200448054900684968044AC1F3AC
:100F60000221515CC8407047180000200010024068
:100F70002C4200080448054900684968044AC1F346
:100F8000C221515CC8407047180000200010024088
:100F90002C4200080E4A51680E4801F00C03042B45
:100FA00011D0082B0FD10C48C1F38343C903C05C97
:100FB0000AD55168084AC1F34041921E515C054A66
:100FC0005043B0FBF1F070470449484370470000BC
:100FD0000010024000127A000C42000800093D0097
:100FE0002DE9F84F040070D02078C04DC00749D0DB
:100FF0006868C0F38100012807D06868C0F38100E9
:10100000022809D16868C00306D52868800339D54D
:1010100060680028E7D035E06068B0F5803F0BD00D
:1010200010B1B0F5A02F11D0286820F480302860CE
:10103000286820F4802002E0286840F4803028608E
:10104000606890B1FFF77EFB06460AE0286840F42E
:1010500080202860F0E700BFFFF774FB801B642846
:1010600073D828688003F7D50CE0FFF76BFB0646C2
:1010700005E000BFFFF766FB801B6428F0D82868F6
:101080008003F7D420789A4E80074FF001094FF083
:10109000000839D5686810F00C0F07D06868C0F3F5
:1010A0008100022809D16868C00306D42868800737
:1010B00014D52069012808D110E02069B0B1C6F824
:1010C0000090FFF73FFB074605E00AE1FFF73AFB18
:1010D000C01B0228C4D828688007F7D52868616932
:1010E00020F0F80040EAC10028600DE0C6F800805A
:1010F000FFF728FB074604E0FFF724FBC01B02288C
:1011000023D828688007F7D4207800072CD57948A1
:10111000A169D9B1C0F80090FFF714FB074604E0BD
:10112000FFF710FBC01B02280FD8686A8007F7D5AD
:1011300071484FF4FA510068B0FBF1F0009000BF25
:101140000098411E0091FAD20EE080E0C0F80080C5
:10115000FFF7F8FA074604E0FFF7F4FAC01B02288D
:1011600075D8686A8007F7D42078400760D5E869A9
:101170000027C00008D4E86940F08050E861E869C1
:10118000012700F0805000905C480168C90513D425
:101190000168834641F480710160FFF7D3FA82460B
:1011A00006E000BFFFF7CEFAA0EB0A0064284ED895
:1011B000DBF80000C005F5D5E06801280AD008B1C9
:1011C000052813D0286A20F001002862286A20F040
:1011D000040002E0286A40F001002862E06841F261
:1011E000883B98B1FFF7AEFA82460BE0286A40F0E0
:1011F00004002862EEE700BFFFF7A4FAA0EB0A01A3
:1012000059455AD8286A8007F6D50CE0FFF79AFAB4
:10121000824605E0FFF796FAA0EB0A0159454CD843
:10122000286A8007F6D41FB1E86920F08050E86191
:10123000E06988B36968C1F38101022944D00228BA
:10124000C6F8608004D0FFF77DFA044638E034E049
:10125000FFF778FA074604E0FFF774FAC01B02288C
:101260002BD828688001F7D4206AB0F5803F05D1DB
:101270006868A16820F4003008436860D4E9080178
:101280000843696821F4741108436860C6F86090E7
:10129000FFF758FA044606E025E000BFFFF752FAD0
:1012A000001B022809D828688001F7D51BE000BF81
:1012B000FFF748FA001B022802D90320BDE8F88F87
:1012C00028688001F4D40EE00128F7D06868226A0B
:1012D00000F48031914204D1616A00F470108842B8
:1012E00001D00120EAE70020E8E7000000100240FA
:1012F000000042428004424218000020007000407A
:1013000010B5401EB0F1807F01D3012010BD4FF019
:10131000E02460610F21601701F02DFA0020A06128
:1013200007202061002010BD7047704710B590F86D
:101330003C20012A22D0012280F83C20CA688C6817
:1013400022F4407222434C6822F4806222430C68EB
:1013500022F4006222430C6922F4805222434C6939
:1013600022F400522243C969002322F480420A4336
:1013700001684A6480F83C30002010BD022010BD96
:1013800070B590F83C20012A26D0012480F83C401A
:10139000022280F83D2003685A689D6822F070069A
:1013A0000A6832435A600D4B02689A4208D0B2F183
:1013B000804F05D00A4B9A4202D00A4B9A4204D180
:1013C000496825F080031943916080F83D40002171
:1013D00080F83C10084670BD022070BD002C014012
:1013E000000400400008004010B5040003D094F849
:1013F0003D0010B107E0012010BD002084F83C0042
:10140000204600F01FF8022084F83D00211D2068CE
:1014100001F032F8012084F8460084F83E0084F898
:101420003F0084F8400084F8410084F8420084F8CA
:10143000430084F8440084F8450084F83D0000200F
:1014400010BD000008B500680F4988421AD10F4846
:10145000816941F4006181618069002200F40060CB
:10146000009005211820FFF7ADFC1820FFF79CFC29
:10147000002205211920FFF7A5FCBDE8084019202E
:10148000FFF792BC08BD0000002C01400010024094
:1014900070B5044690F83C000025012817D00126BD
:1014A00084F83C60022084F83D002068826822F0C5
:1014B000770222F47F4282600868502838D00DDC21
:1014C00020284FD005DC90B3102811D14AE002202B
:1014D00070BD302846D040280AD13BE060282FD08C
:1014E00070280DD0B0F5805F03D0B0F5005F12D04A
:1014F000012584F83D60002084F83C00284670BD3A
:10150000CB68D1E90121206800F0FFFF20688168E5
:1015100041F0770109E0CB68D1E90121206800F0B2
:10152000F4FF2068816841F480418160E1E719E0BF
:10153000CA684968206801F09DF85021206806E0DB
:10154000CA684968206801F0A6F86021206800F0A8
:10155000E6FFCEE7CA684968206801F08BF84021B1
:101560002068F4E7226801461046F0E770472DE94D
:10157000F04104460068C66805694FF00007A907F6
:1015800013D5B10711D5F91E01610120207720681C
:1015900080698007204602D0FFF7E8FF04E000F0F2
:1015A000A5F8204600F037F92777680716D57007A9
:1015B00014D521686FF004000861022020772068AC
:1015C000806910F4407F204602D0FFF7CFFF04E08F
:1015D00000F08CF8204600F01EF92777280715D573
:1015E000300713D521686FF00800086104202077C8
:1015F0002068C0698007204602D0FFF7B7FF04E0EB
:1016000000F074F8204600F006F92777E80616D5B2
:10161000F00614D521686FF01000086108202077CB
:101620002068C06910F4407F204602D0FFF79EFF7B
:1016300004E000F05BF8204600F0EDF82777E807BB
:1016400008D0F00706D021686FF00100086120463D
:1016500000F030F9280608D5300606D521686FF06D
:10166000800008612046FFF75FFE680608D5700617
:1016700006D521686FF040000861204600F01BF994
:10168000A8060AD5B00608D521686FF020000861C9
:101690002046BDE8F041FFF748BEBDE8F0810000FC
:1016A00000B585B00021009101910291039100687D
:1016B0000B49884212D10B48816941F004018161D4
:1016C0008069694600F0040004904FF44070009077
:1016D0000220019003900448FEF73EFF05B000BDD4
:1016E000002C01400010024000080140704770B516
:1016F000044690F83C0000260D4601280FD001203A
:1017000084F83C006AB1042A1DD0082A2FD00C2A84
:101710003FD00126002084F83C00304670BD0220F6
:1017200070BD206800F004FF2068816941F0080165
:1017300081612068816921F00401816120688169EB
:101740002A69114311E0206800F01AFF20688169BE
:1017500041F4006181612068816921F480618161C7
:10176000206881692A6941EA02218161D2E7206803
:1017700000F032FF2068C16941F00801C1612068B2
:10178000C16921F00401C1612068C1692A6911435E
:1017900011E0206800F04CFF2068C16941F400614D
:1017A000C1612068C16921F48061C1612068C1699B
:1017B0002A6941EA0221C161ACE710B5040003D0F7
:1017C00094F83D0010B107E0012010BD002084F81E
:1017D0003C00204600F01EF8022084F83D00211D48
:1017E000206800F049FE012084F8460084F83E009D
:1017F00084F83F0084F8400084F8410084F84200F7
:1018000084F8430084F8440084F8450084F83D00DF
:10181000002010BD7047704710B50446022249B140
:1018200004290ED0082913D094F84100012816D0BD
:10183000012010BD94F83E000128F9D184F83E2023
:101840000FE094F83F000128F2D184F83F2008E02F
:1018500094F840000128EBD184F8402001E084F89E
:1018600041200122206800F043FE0F492068884291
:1018700003D1426C42F4004242642068884208D09E
:10188000B0F1804F05D00949884202D0084988420A
:1018900004D1816801F00701062903D0016841F0F5
:1018A00001010160002010BD002C01400004004037
:1018B000000800407047704770B5040004D094F8E9
:1018C0004100002510B106E0012070BD84F84050B1
:1018D000204600F023F8242084F841002068C168E5
:1018E00021F40051C160204600F0E8FE2068016943
:1018F00021F4904101612068416921F02A01416190
:101900002068C16841F40051C1606564202084F8FA
:10191000410084F842006563002070BD30B585B099
:1019200000240094019402940394006814498842AE
:1019300023D11448C16941F40031C161C16901F486
:1019400000310491816941F00401816180690E4D8B
:1019500000F0040004900420009002200190032075
:10196000039069462846FEF7F7FD0820CDE90004FC
:10197000694628460294FEF7EFFD05B030BD000031
:10198000004400400010024000080140FEE70168EA
:101990004A69D24352050FD46FF480624A61002134
:1019A00040F8301F202242738173026942F0040222
:1019B0000261017301207047002070472DE9F84F44
:1019C0000446C06A1E4693460D4621680A6842F4E2
:1019D00080620A60082807D0012805D010F5803FF2
:1019E00002D0206B112804D12068016841F4807175
:1019F00001604FF001195B460022494620460096DF
:101A000000F0CCF84FF4007840B120680068C005C1
:101A100001D5C4F840800320BDE8F88F2069DFF8C5
:101A200084A0B0F5804F0FD00620216800EAD517BA
:101A300047F0F000086133465A460AF10601204695
:101A400000F0F4F858BB03E0E8B240F001001CE0FD
:101A50002168E8B2086133465A465146204600F0F4
:101A6000E5F8E0B92068416981690091016841F4B5
:101A7000807101605B46002249462046009600F0D6
:101A80008DF80028C1D147F0F10021680861334684
:101A90005A465146204600F0C9F80028BCD0012023
:101AA000BAE7000002000100F8B50446C06A1E460D
:101AB0000D461746082807D0012805D010F5803FAD
:101AC00002D0206B122804D12068016841F4807193
:101AD0000160134600224FF001112046009600F0ED
:101AE0005DF840B120680068C00502D54FF4007071
:101AF00020640320F8BD2069B0F5804F0ED0062089
:101B0000216800EAD51040F0F000086133463A46FB
:101B10000B49204600F08AF878B902E005F0FE0093
:101B200000E0E8B221680861054933463A46891F5A
:101B3000204600F07BF80028DCD00120F8BD000032
:101B40000800010070B516460D4604461EE020460A
:101B5000FFF71DFF08B1012070BD681C16D0FEF70D
:101B6000F1FD801BA84200D885B920684069C043B8
:101B700040070BD5002044F8300F20216173A0737B
:101B8000216941F0200121612073E4E72068406968
:101B9000C0434007DBD4002070BD00002DE9F047B2
:101BA000984617460D460446C1F30746DDF82090D7
:101BB0002AE000BFB8F1FF3F26D0FEF7C3FDA0EB3F
:101BC0000901414502D8B8F1000F1DD12068012E4E
:101BD00016D0806925EA00000004000C12D0002015
:101BE000B84211D1002044F8300F20216173A07356
:101BF000216941F02001216120730120BDE8F087B7
:101C00004069E7E70120EBE72068012E0AD08069F0
:101C100025EA00000004000C06D00020B842C9D01C
:101C20000020EBE74069F3E70120F7E72DE9F047F3
:101C3000984616460D4604464FF000094FF0200A1C
:101C4000C1F3074723E020684069C043400515D42D
:101C50002068016841F40071016021686FF48060C0
:101C60004861C4F8309084F83DA084F83E90216C1F
:101C700041F00401216484F83C9021E0701C06D0FE
:101C8000FEF760FDA0EB0800B04203D816B1012FAB
:101C90001FD021E02068012F15D0806925EA0000BF
:101CA0000004000C18D000BF44F8309F84F80DA049
:101CB00084F80E90216941F02001216184F80C9094
:101CC0000120BDE8F087406925EA00000004000C0F
:101CD000EAD12068406901E02068806925EA0000B7
:101CE0000004000CAFD1ECE72DE9F041002590464F
:101CF0000E460446202728E04069C043C0060CD4A5
:101D000054F8301B6FF01000486144F810596777A1
:101D1000A577206A2062257714E0FEF713FDA0EB7B
:101D20000800B04200D886B920684069C043400628
:101D30000BD544F8305F6773A573206940F020002D
:101D4000206125730120BDE8F08120684169C94305
:101D50004906D1D40020F6E770B516460D46044674
:101D60001EE02046FFF713FE08B1012070BD681C7D
:101D700016D0FEF7E7FC801BA84200D885B9206882
:101D80004069C04300060BD5002044F8300F2021E5
:101D90006173A073216941F0200121612073E4E7A0
:101DA00020684069C0430006DBD4002070BD0000FD
:101DB00070B586B0002431480094019402940394D5
:101DC000816941F020018161816901F02001049164
:101DD000816941F004018161816901F0040104918C
:101DE000816941F0080181618069254E00F0080099
:101DF0004FF44C650490002229463046FEF79CFCC7
:101E00000220CDE902400095012569460195304642
:101E1000FEF7A2FB41F2330000901A48CDE901051C
:101E200069463046FEF798FB002205210620FEF7A2
:101E3000C9FF0620FEF7B8FF002205210720FEF7A4
:101E4000C1FF0720FEF7B0FF002205210A20FEF7A0
:101E5000B9FF0A20FEF7A8FF002205211720FEF790
:101E6000B1FF1720FEF7A0FF002205212820FEF772
:101E7000A9FF2820FEF798FF06B070BD00100240B1
:101E800000080140000021100C4810B50A4901600B
:101E90000B49416000214FF480428160C0E9031288
:101EA00041618161C1610162FEF752FC002801D0ED
:101EB00072B6FEE710BD0000005400408400002010
:101EC000A08601000C4810B50A4901600B49416029
:101ED00000214FF480428160C0E9031241618161B9
:101EE000C1610162FEF734FC002801D072B6FEE742
:101EF00010BD000000580040D8000020A08601005E
:101F000010B596B000240F94109411941294139469
:101F10001C2168461494FEF7E8F9202107A8FEF773
:101F2000E4F92C482A4901604721C0E9011440F234
:101F3000E731C0E9031444618461FFF755FA08B141
:101F400072B6FEE74FF480500F900FA92148FFF7BB
:101F50009FFA08B172B6FEE71E48FFF72EFC08B1E3
:101F600072B6FEE7139413A91A481494FFF708FAFF
:101F700008B172B6FEE76020CDE900040294039434
:101F8000049405940022694612480694FFF7AFFBBB
:101F900008B172B6FEE7042269460E48FFF7A7FBB8
:101FA00008B172B6FEE70794089409944FF4005004
:101FB0000A94CDE90B4007A906480E94FFF7B6F93D
:101FC00008B172B6FEE70348FFF76AFB16B010BD12
:101FD000002C01402C0100200B4810B5094901607C
:101FE0004FF4E1314160002181600C22C160C0E901
:101FF00004128161C161FFF75FFC002801D072B655
:10200000FEE710BD0044004074010020244D08B5D7
:10201000214F224CDFF88C904FF0FF38A5F13406A9
:1020200042466946A06801F0A1FA0128F8D120785B
:102030000128F5D19DF8000098B1012819D0022897
:1020400021D00328ECD13946706A01F0F9FF002154
:1020500000F0A1FB01461248B0F1340000F05EF937
:10206000DEE73946686A01F00BFD494600F0A7FB40
:1020700006E03946686A01F0E3FF0B4900F08BFB8C
:1020800001460748EAE73946706A01F0F9FC49461B
:1020900000F095FBDEE7000000002041000000207A
:1020A000F00100200000B4420000B4C2FEE7FEE7E9
:1020B0001CB5DFF850B14FF0000A0421524800F07F
:1020C000BEF95148FEF7A8F9064605214E4800F032
:1020D000B6F94D48FEF7A0F9044606214A4800F03B
:1020E000AEF94948FEF798F905460721464800F041
:1020F000A6F94548FEF790F907462146304601F01B
:10210000BFFC4FF0FF3102F042F8814639462846C5
:1021100001F0B6FC4FF0FF3102F039F88046294655
:10212000304601F0ADFC4FF0FF3102F030F80546CB
:102130003946204601F0A4FC4FF0FF3102F027F8A9
:1021400004464146484601F07BFF064629462046A4
:1021500001F076FF04462D4D26F00040A8421FDD19
:102160002B4901F049FD294600F029FB01464FF4B7
:1021700000025046964205DB264FBA4502DA01F0CE
:102180007FFC06E016F1FF4F03D3924501DB01F01F
:1021900057FF214AA0F50001914201D282460090EA
:1021A00024F00040A84220DD194901F025FD294610
:1021B00000F005FB01465846B4F5000F05DB154A53
:1021C000934502DA01F05CFC07E014F1FF4F04D301
:1021D0000C4B9B4501D201F033FF0A49884204D8D9
:1021E0000C49884201DC834601900C4800235A1EAA
:1021F0006946406801F0AAF84FF47A7000F01EFFBB
:102200005BE700000000B4C2840000200000A04092
:10221000000020410000B4420000344200000020D1
:1022200010B5044690F83000002807D0A18801229C
:102230002068FEF781FA002084F8300010BD10B548
:10224000044690F8300000280CD1A18800222068B4
:10225000FEF772FA012084F83000BDE81040052036
:10226000FEF71CB910BD00002DE9F0410446DDE980
:102270000806DDE906C72360C4E90412A4F804C017
:10228000A760A08184F8316000204FF44863A0610A
:10229000C4E907030D466062C9684908E16284F831
:1022A00030000EB905486062A06211462846FFF76B
:1022B000B3FA2046BDE8F041FFF7B2BF0000B4C258
:1022C00070B50546002927D04FF0010000EBE176FC
:1022D00001DAC1F100010C462846FFF7B0FF314694
:1022E000284600F055F82846E96A00F05FF8E869EA
:1022F0000EB1204400E0001BE8614FF47A704443C3
:10230000E86AB4FBF0F0FEF7C9F8E869A86128466E
:10231000BDE87040FFF784BF70BD00002DE9F041BB
:1023200004460E46006A01F045FD144901F064FCC4
:1023300007461348134D844201D1002103E012489F
:10234000844218D11149304601F048FD13D3294683
:10235000304601F043FE0ED33046616A01F070FE54
:10236000394601F06FFD01F009FD010003D0204660
:10237000FFF7A6FF6662BDE8F08100000000B443ED
:10238000BC0100200000B442F00100200000B4C2F3
:1023900010B509B1012200E0002281898068FEF7B2
:1023A000CBF9BDE810400120FEF778B8C162426960
:1023B0002AB1042A02D1006900688163704700696C
:1023C00000684163704710B5FEF790FC01F0FCF91E
:1023D000012803D0BDE8104000F03CBF10BD30B56F
:1023E0008FB028216846FDF780FF14210AA8FDF769
:1023F0007CFF01210804CDE900100024029402258D
:102400000491CDE907504FF4E01009906846FEF7BB
:10241000E7FD08B172B6FEE70F20CDE90A054FF4DB
:102420008060CDE90C4002210AA80E94FEF7FCFC66
:10243000002801D072B6FEE70FB030BD70471CB562
:1024400001228A4064218DF804200091012301AA11
:10245000E021FEF769FB0A20FEF720F81CBD000012
:102460000148FFF784B800002C0100200148FFF765
:102470007EB800002C010020F0B50268194B1A4C00
:102480001A4D4FF08047984205D0B84203D0A04281
:1024900001D0A84203D122F070064A683243984224
:1024A00005D0B84203D0A04201D0A84203D122F403
:1024B0004074CA6822434C6922F0800222430260C1
:1024C0008A68C2620A688262984201D1096901631E
:1024D000012141610169C90703D0016921F00101AE
:1024E0000161F0BD002C01400004004000080040E4
:1024F00010B501F01F030121046A99408C43046266
:10250000016A9A401143016210BD10B5846842EA25
:10251000032224F47F440A432243826010BD826870
:1025200022F070020A4342F0070181607047000008
:1025300030B5036A026A22F00102026242688469CD
:1025400024F073050C682C4323F002058B682B43A1
:102550000A4DA8420BD123F00805CB6822F4407243
:102560002B434D6923F0040315438A692A434260D3
:10257000846149684163036230BD0000002C014062
:1025800030B5026A036A23F010030362436884696A
:102590000D6824F4E64444EA05248D6822F0200204
:1025A00042EA05120B4DA8420ED1CD6822F08002FE
:1025B00042EA05124D6923F4406343EA85038D69BD
:1025C00022F0400243EA85034360846149688163E5
:1025D000026230BD002C014030B5036A026A22F469
:1025E000807202624268C46923F4007324F07305A8
:1025F0000C682C438D6843EA05230C4DA8420ED18C
:10260000CD6823F4006343EA05234D6922F4405268
:1026100042EA05128D6923F4806342EA05124260A2
:10262000C4614968C163036230BD0000002C0140F1
:1026300030B5046A026A22F4805202624268C369B9
:102640000D6823F4E64343EA05238D6824F400541F
:1026500044EA0534064DA84204D14D6922F4804273
:1026600042EA85124260C36149680164046230BD78
:10267000002C014010B5036A046A24F001040462CE
:10268000846924F0F00444EA021423F00A020A43A5
:102690008461026210BD10B5036A046A24F010045C
:1026A0000462846923F0A00324F4704444EA0232F3
:1026B00043EA01118261016210BD000070B5044659
:1026C00000680169E26821F4405111430161216908
:1026D000A0680843616908432168CA6841F20C6335
:1026E0009A430243CA6020684169A26921F440719B
:1026F000114341611E492068884202D1FEF73AFC2D
:1027000001E0FEF727FC00EBC00101EB001260685E
:1027100064218000B2FBF0F3B3FBF1F36FF0180615
:102720007343B2FBF0F5B2FBF0F605EB8305322301
:1027300003EB0515B5FBF1F5B6FBF1F605F0F00579
:1027400005EB0615B2FBF0F6B2FBF0F0B0FBF1F0D2
:102750006FF01802504306EB800003EB0010B0FB53
:10276000F1F0216800F00F002844886070BD00007F
:1027700000380140FEE70907090E002804DB00F1DC
:10278000E02080F80014704700F00F0000F1E02016
:1027900080F8141D704770B50C46054601F001FA2B
:1027A00000F07040B0F1005F07D024F00040C0F1AD
:1027B000FF40C00F04BF204670BD284670BD70B5F5
:1027C0000C46054601F0EDF900F07040B0F1004F05
:1027D00007D024F00040C0F1FF40C00F04BF2046E6
:1027E00070BD284670BD00001FB5FEF787FAFFF7E1
:1027F000F6FDFFF7DDFAFFF747FBFFF763FBFFF797
:102800007FFBFFF7E9FB244D012680204021CDE925
:102810000015CDE902062B46002220492048FFF78B
:1028200023FDE8140024411003940091CDE90150E8
:102830001B482B46042219493430FFF715FD194D6A
:10284000686838BB00220121052000F019FDA8604E
:1028500000220821012000F013FD68600220CDE96C
:1028600000040023802210A1114800F055FFCDE99B
:102870000064002380220FA1114800F04DFF0320C7
:10288000CDE90004002380220EA1124800F044FF8D
:1028900000F020FCFEE70000000801402C010020B1
:1028A000BC0100200000002053656E736F7273003E
:1028B000B1200008537465707065727300000000E9
:1028C000450400084D616E75616C436F6E74726FE4
:1028D0006C0000000D2000082DE9F041184C0F4657
:1028E0000546E6682068001D00F0B6FA38B9206891
:1028F00090F82C1001208840216981432161681CD7
:1029000007D137B12168BDE8F0410E48091D00F03C
:10291000E7BA20683544B5424560216805D2A06B0E
:10292000BDE8F041091D00F0C3BA606B091D00F05D
:10293000BFFAA06A854200D2A562BDE8F08100001E
:102940001C000020540500202DE9F041054600F050
:10295000D3FA2E4CA068401CA06020682C4F10B108
:10296000606940B32DE02560A068012829D10026C8
:1029700006EB860007EB800000F08CFA761C072E31
:10298000F6D323488C3000F085FA2148A03000F0BF
:1029900081FA1F48B43000F07DFA1D48C83000F0BD
:1029A00079FA1B48DC3000F075FA19488C30606306
:1029B0001430A06305E02068E96AC06A884200D844
:1029C0002560606A401C6062E96A012022698840D3
:1029D0001043206101EB810007EB8000291D00F00E
:1029E0007FFA00F0A9FA606900280CD02068E96A33
:1029F000C06A884207D207494FF080500860BFF391
:102A00004F8FBFF36F8FBDE8F08100001C000020E6
:102A10007804002004ED00E030B4026C0B46002A7C
:102A20000BD0C1681144C1608468A14201D3016820
:102A3000C16030BC1846FDF713BC30BC70472DE9AF
:102A4000F041856B174604460026026C82B1C7B17F
:102A5000E068FDF705FCE168206C091AE160226876
:102A6000914202D2A168081AE060022F16D017E046
:102A70002068A8B9A06800F01BFF06460020A060EF
:102A80000EE06068FDF7ECFB216C60680844606054
:102A9000A168884204D32068606001E005B16D1E22
:102AA0006D1CA5633046BDE8F08110B5044690F872
:102AB000510058B101280CD002280FD0502080F3CB
:102AC0001188BFF34F8FBFF36F8FFEE7206B00F0CD
:102AD00047FA2046BDE8104000F042BA10BD0000A1
:102AE00010484FF44061420706D0C01D0D4920F048
:102AF0000700411AC1F540610B4A00230144C2E9B5
:102B000000030839183A21F0070111604B600B608F
:102B10000B1AC0E9001393604FF0004053605061FE
:102B2000704700006805002070000020144E154C0E
:102B3000A6F1C8074FF08058DFF84C9012E000BFB4
:102B400000F0DAF9F068C568281D00F085F9A06882
:102B5000401EA0606068401E606000F0EDF92846ED
:102B6000FFF7A3FF60680028EAD138680128F9D987
:102B7000C9F80080BFF34F8FBFF36F8FF2E70000FB
:102B8000400500201C00002004ED00E003460098F2
:102B900029B10260C0E90F31012100F093BB006050
:102BA000F8E72DE9F0479A46DDE9098481466FF0A0
:102BB0000303206B03EB82021044089E20F00707FA
:102BC000780707D0502080F31188BFF34F8FBFF3F1
:102BD0006F8FFEE7002561B1002023180A5C83F89F
:102BE00034200A5C12B1401C1028F6D384F84350FC
:102BF00001E084F83450072E00D30626E662C4E9CB
:102C00001165201D00F051F904F1180000F04DF994
:102C10002461C6F107006462A061E56484F8505045
:102C200052464946384600F005F92060B8F1000FD9
:102C300001D0C8F80040BDE8F087000030B5114968
:102C400000E011460A688242FBD34B685C1884425C
:102C500003D1406818444860084643681C189442F1
:102C600009D1084C183C2468A24209D052681A4481
:102C700042600A6812680260814200D0086030BD7C
:102C80000460F9E77000002010B5044600F034F944
:102C9000A06B28B15FF0000400F04EF9204610BD93
:102CA0000124F9E70648416B096829B1416BC968FD
:102CB000C9684968816270474FF0FF31FAE7000048
:102CC0001C00002008484068401C4FF0500080F372
:102CD000118804D0BFF34F8FBFF36F8FFEE7BFF3B0
:102CE0004F8FBFF36F8FFEE7780000202DE9F04192
:102CF000044600F001F994F9455004F1240609E076
:102D0000606A48B1304600F01FFE08B100F0C4F917
:102D10006D1E6DB2002DF3DC4FF0FF3684F8456078
:102D200000F00AF900F0E8F894F9445004F11007B3
:102D300009E0206948B1384600F006FE08B100F00D
:102D4000ABF96D1E6DB2002DF3DC84F84460BDE874
:102D5000F04100F0F1B800002DE9F04105460027F0
:102D600000F0EEF9324E306808B9FFF7B9FE70692D
:102D700005424ED1C5B3083568070ED005F00700EF
:102D8000C0F108000544680707D0502080F311887F
:102D9000BFF34F8FBFF36F8FFEE72DB3706885428F
:102DA00037D82348183001460C6801E020460C460D
:102DB0006168A94202D221680029F7D131688C42AA
:102DC00027D007682168016060680837411B102917
:102DD0000FD96019420708D0502080F31188BFF343
:102DE0004F8FBFF36F8FFEE713E041606560FFF721
:102DF00025FF61687068401A7060B268904200D226
:102E0000B060706901430020C4E90001F068401C13
:102E1000F06000F0D3FD780707D0502080F31188D0
:102E2000BFF34F8FBFF36F8FFEE73846BDE8F081E9
:102E30005800002010B5031F4FF080741C601B1F4A
:102E400021F001011960191F024B0B601439403841
:102E50000A6010BDC52C0008D0E9013201699A60F2
:102E6000D0E901235A604A68824201D182684A60EF
:102E7000002202610868401E086008687047000070
:102E8000034B036003F1540008608020106070471A
:102E90002402002000F108014FF0FF32C0E90112C6
:102EA000C16001610021016070470021016170472C
:102EB00030B50B685A1C02D000F1080202E002692A
:102EC00004E02246546825689D42FAD953684B6055
:102ED00099608A60516008610168491C016030BDD9
:102EE00042684A6093688B6093685960916008619A
:102EF0000168491C01607047502080F31188BFF3BE
:102F00004F8FBFF36F8F0A494868401C4860012803
:102F10000CD10848006810F0FF0F07D0502080F354
:102F20001188BFF34F8FBFF36F8FFEE7704700002C
:102F30007800002004ED00E00849486828B1401EF0
:102F4000486001D180F311887047502080F31188C8
:102F5000BFF34F8FBFF36F8FFEE7000078000020B4
:102F600070B500282AD0164DA0F108046068696980
:102F7000084207D1502080F31188BFF34F8FBFF371
:102F80006F8FFEE722683AB1502080F31188BFF3BB
:102F90004F8FBFF36F8FFEE78843606000F0D0F87B
:102FA00060686968084468602046FFF747FE286942
:102FB000401C2861BDE8704000F000BD70BD0000FD
:102FC000580000204FF0E020002101618161054997
:102FD0004FF47A720968B1FBF2F1491E4161072191
:102FE000016170471800002010B5FDF715F911496F
:102FF00010280ED300F1E02090F8F0030A789042F8
:1030000007D2502080F31188BFF34F8FBFF36F8F2B
:10301000FEE709480068896800F4E060884207D943
:10302000502080F31188BFF34F8FBFF36F8FFEE7FF
:1030300010BD0000780000200CED00E010B502008B
:1030400014D00F48006B38B1502080F31188BFF3C3
:103050004F8FBFF36F8FFEE700F072F8002110462C
:10306000FFF73AFC00F0AAFC002807D105494FF011
:1030700080500860BFF34F8FBFF36F8F10BD00000B
:103080001C00002004ED00E002490A6A0260C968E1
:10309000416070471C00002001490120C861704751
:1030A0001C00002010B50C4650B1094909681831C0
:1030B000FFF7FEFE2046BDE810400121FFF70CBCE3
:1030C000502080F31188BFF34F8FBFF36F8FFEE75F
:1030D0001C00002010B586B00024039405AA04A9A2
:1030E00003A80494FFF7CCFEDDE903010094CDE9C9
:1030F000011000230EA11048059A00F03AFB0F4979
:103100000028C86211D0502080F31188BFF34F8F80
:10311000BFF36F8F4FF0FF30886201204861CC60B1
:1031200006B0BDE8104000F041B806B010BD000088
:1031300049444C45000000002D2B00081C000020D5
:103140000248016B491C0163704700001C0000200D
:103150001448016B11B10121C16170470021C161A7
:103160000169B1FA81F1C1F11F0101EB81020E4940
:1031700051F822306BB101EB820101F108034A687A
:1031800052684A609A4201D152684A60D16801602F
:103190007047502080F31188BFF34F8FBFF36F8FBC
:1031A000FEE700001C000020780400201CB5264922
:1031B00008780190FF20087008788DF800009DF8CD
:1031C00000009DF8002000F0F000904207D0502051
:1031D00080F31188BFF34F8FBFF36F8FFEE79DF829
:1031E00000001A4C00F0500020700720A06005E09D
:1031F0009DF8002052008DF80020401E9DF8002010
:103200001206F5D4A060032807D0502080F311885F
:10321000BFF34F8FBFF36F8FFEE74FF44070A06096
:10322000019808700A48016841F470010160016862
:1032300041F070410160FFF7C5FE00206060FCF7BF
:10324000B5FF00201CBD000000E400E07800002075
:1032500020ED00E010B5502080F31188BFF34F8FB0
:10326000BFF36F8F00F0BEFA18B104494FF08050E1
:103270000860002080F3118810BD000004ED00E01C
:10328000F8B517460E46050013D005FB06F048308A
:10329000FFF762FD04000AD0002084F8460004F124
:1032A00048023B46314628460094FFF76FFC204613
:1032B000F8BD502080F31188BFF34F8FBFF36F8F9D
:1032C000FEE7000070B50D46040025D0FFF714FEA0
:1032D000D4E90F20216802FB0011A1600021A16345
:1032E000216861600A46D4E90F01401E00FB0121FC
:1032F000E16021464FF0FF3001F8440F487004F1BF
:1033000010008DB1FFF7C6FD04F12400FFF7C2FDE8
:10331000FFF712FE012070BD502080F31188BFF32B
:103320004F8FBFF36F8FFEE721690029F0D000F0C7
:103330000BFB0028ECD004494FF080500860BFF32D
:103340004F8FBFF36F8FE3E704ED00E02DE9FF47F8
:1033500082B01D468A464FF00008040003D0BAF13F
:10336000000F08D011E0502080F31188BFF34F8F79
:10337000BFF36F8FFEE7206C38B1502080F31188C7
:10338000BFF34F8FBFF36F8FFEE7022D0AD1E06BC3
:10339000012807D0502080F31188BFF34F8FBFF36F
:1033A0006F8FFEE700F010FA3F4F4FF000094FF02B
:1033B000805648B9049838B1502080F31188BFF383
:1033C0004F8FBFF36F8FFEE7FFF796FDA06BE16BAA
:1033D000884207D3022D05D00498D0B1B8F1000F70
:1033E0001AD01EE02A4651462046FFF728FB616AA4
:1033F00019B104F1240000F0A7FA20B13E60BFF338
:103400004F8FBFF36F8FFFF797FD012006B0BDE828
:10341000F087FFF791FD22E06846FFF735FE4FF099
:103420000108FFF789FDFFF78BFEFFF765FD94F9B3
:103430004400401C01D184F8449094F94500401C9C
:1034400001D184F84590FFF777FD04A9684600F0A4
:1034500029F930B12046FFF749FC00F0AFFA00200F
:10346000D4E7FFF749FDA06BE16B884213D1FFF76A
:1034700063FD04F110000499FFF714FE2046FFF7E6
:1034800035FC00F09BFA00289ED13E60BFF34F8FC1
:10349000BFF36F8F98E7FFF74FFD2046FFF726FC3D
:1034A00000F08CFA90E7000004ED00E02DE9F04711
:1034B0001F4690468946040003D0B9F1000F08D09A
:1034C00011E0502080F31188BFF34F8FBFF36F8F4F
:1034D000FEE7206C38B1502080F31188BFF34F8F86
:1034E000BFF36F8FFEE7022F0AD1E06B012807D0F0
:1034F000502080F31188BFF34F8FBFF36F8FFEE72B
:10350000FFF772FD5020EFF3118680F31188BFF3AF
:103510004F8FBFF36F8FA06BE16B884206D3022FF2
:1035200004D0002086F31188BDE8F08794F9455057
:10353000A06B3A4649462046FFF781FA681C04D042
:103540006D1C84F845500120ECE7606A0028FAD031
:1035500004F1240000F0F8F90028F4D0B8F1000FCD
:10356000F1D00121C8F80010EDE700002DE9F74780
:10357000002683B08A46040003D0BAF1000F08D0B9
:1035800011E0502080F31188BFF34F8FBFF36F8F8E
:10359000FEE7206C38B1502080F31188BFF34F8FC5
:1035A000BFF36F8FFEE700F00FF9DFF8F4804FF004
:1035B00000094FF0805748B9059838B1502080F382
:1035C0001188BFF34F8FBFF36F8FFEE7FFF794FCB7
:1035D000A56BC5B151462046FFF71EFA6D1EA563C7
:1035E000206950B104F1100000F0AEF928B1C8F81C
:1035F0000070BFF34F8FBFF36F8FFFF79DFC01206B
:1036000006B0BDE8F087059808B11EB106E0FFF7E7
:1036100093FC27E06846FFF737FD0126FFF78CFC97
:10362000FFF78EFDFFF768FC94F94400401C01D1C0
:1036300084F8449094F94500401C01D184F84590E9
:10364000FFF77AFC05A9684600F02CF80028204610
:103650000AD0FFF74BFB00F0B1F92046FFF714FB4F
:103660000028B3D00020CBE7FFF70EFB90B104F1A8
:1036700024000599FFF716FD2046FFF737FB00F001
:103680009DF90028A2D1C8F80070BFF34F8FBFF397
:103690006F8F9BE72046FFF729FB00F08FF995E736
:1036A00004ED00E02DE9F0410C46050011D0C4B155
:1036B000FFF722FC174BDA686E682068911B471CE5
:1036C00017D02F681B6A9F4219D0964217D8012441
:1036D00010E0502080F31188BFF34F8FBFF36F8F3E
:1036E000FEE7502080F31188BFF34F8FBFF36F8F39
:1036F000FEE70024FFF720FC2046BDE8F081884269
:1037000005D9401A20602846FFF7BEFCF1E70020EB
:103710002060DCE71C0000202DE9FF5F8346DDE927
:103720000E87994616468A469000FFF715FB05005E
:103730001CD05420FFF710FB040014D00020256398
:1037400084F85100CDE90240CDE900874B4632466E
:1037500051465846FFF725FA2046FFF7F5F80120B5
:1037600004B0BDE8F09F2846FFF7FAFB4FF0FF30AA
:10377000F6E7F0B585B0DDE90B640A9DA6B1DCB1D2
:10378000542700972663022684F85160002604AF70
:10379000CDE90246CDE90057FFF703FA2046FFF7CF
:1037A000D3F8049805B0F0BD502080F31188BFF322
:1037B0004F8FBFF36F8FFEE7502080F31188BFF368
:1037C0004F8FBFF36F8FFEE70548416919B1006B5A
:1037D00018B1002070470120704702207047000098
:1037E0001C0000202DE9F0412F4C0026206B28B151
:1037F000A069401CA0613046BDE8F081E5686D1C01
:10380000E56013D1606B006838B1502080F31188F7
:10381000BFF34F8FBFF36F8FFEE7606BA16B6163E8
:10382000A063206A401C2062FFF73CFAA06ADFF820
:103830007C80854209D3606B0068A0B1606BC06872
:10384000C7687868854211D2A0622068C06A00EB20
:10385000800158F82100012800D90126E0690028DC
:10386000C9D00126C7E74FF0FF30EDE7381DFFF75D
:10387000F3FAB86A18B107F11800FFF7EDFAF96A20
:103880000120226988401043206101EB810108EB8F
:103890008100391DFFF724FBF86A2168C96A884254
:1038A000C9D30126C7E700001C00002078040020CF
:1038B00070B504004FF0000140D0214D28688442CB
:1038C00007D0502080F31188BFF34F8FBFF36F8F65
:1038D000FEE7A06C38B1401EA064636CE26A9A42B5
:1038E0002CD040B12AE0502080F31188BFF34F8FD5
:1038F000BFF36F8FFEE7201DFFF7AEFA114A0121DB
:1039000050B9E06A00EB800352F8233023B92B69E9
:1039100001FA00F083432B61606CE062C0F10700A4
:10392000A061E06A2B6981401943296100EB8000A6
:1039300002EB8000211DFFF7D3FA0121084670BD7C
:103940001C000020780400202DE9F041C068C46804
:10395000ACB104F118000746FFF77EFA154D286B4D
:103960000126A0B139461448FFF7BAFAE06A29687F
:10397000C96A88421CD90120EE61BDE8F08150205F
:1039800080F31188BFF34F8FBFF36F8FFEE7201DC9
:10399000FFF762FAE16A2A6906FA01F0104328612A
:1039A00001EB81000449B43901EB8000211DDBE704
:1039B0000020E2E71C0000202C0500202DE9F04744
:1039C0002C4D00242746286B38B1FFF795FA286B59
:1039D000401E2863286B40B146E0502080F31188D8
:1039E000BFF34F8FBFF36F8FFEE7A968224E012010
:1039F000D1B3A6F1B40980463068E8B1F068C46874
:103A000004F11800FFF728FA201DFFF725FAE06AF5
:103A10002A6908FA00F11143296100EB800109EBE2
:103A20008100211DFFF75CFAE06A2968C96A8842B3
:103A3000E2D3C5F81C80DFE70CB1FFF733F9AC69BE
:103A400044B14646FFF7CEFE00B1EE61641EF9D1E7
:103A50000020A861E86938B10849012738070860E3
:103A6000BFF34F8FBFF36F8FFFF766FA3846BDE89D
:103A7000F08700001C0000202C05002004ED00E071
:103A800090EA010F48BF81F0004100F1E082421A44
:103A90003CBF801A89184FEAD0524FF07F4C1CEA85
:103AA000410FA2EBD15318BF9CEA026F00F03B809C
:103AB0004FF0004C4CEA00204CEA012121FA03FCB3
:103AC00010EB0C0C1ED202F1FF325FEA1C2040EB1F
:103AD000C25038BF70471CF07F0F4FEA400C18BF30
:103AE000BCF17F4F38BF7047C3F12003994008BF36
:103AF00020F00100BCF17F4F38BF7047A0F1C040FB
:103B000000F067BA4FEA3C00000A40EBC25028BF01
:103B10001CF0FF0F4FEA400CE6D018BFBCF17F4FFE
:103B200038BF7047EAE79CEA026F05D010EA5C0FE5
:103B300008BF00F00040704710B500F004FA00BF65
:103B400064FBBE3E014800F0F0BA00BF0000C07F39
:103B500050EA010C00F113801CF5000F58BFBCF5B2
:103B6000000F01D48842704707D710F5000F58BFE7
:103B700011F5000F22D488427047894270471CF526
:103B8000000F04D5BCF5000FF7D5814270474FF008
:103B9000807C1CEB400F38BF1CEB410F0ED28142E2
:103BA000704710B5FFF7D4FFEFF3008020F010400E
:103BB00038BF40F0004080F3008810BDBDE81040E1
:103BC00010B500F0C0F900BF0000000900F007B810
:103BD0004FF0404010F1004FEFF30080704740106D
:103BE00058BFC0F14040491058BFC1F14041814227
:103BF000EFF30080704700004FF47F0C1CEAD012F6
:103C00001EBF1CEAD11392EA0C0F93EA0C0F00F0CE
:103C1000858090EA010F48BF42F4807240F4000CA6
:103C200041F400002CF07F4120F07F4000B581423C
:103C3000A2EB03020FF2081CACEB504EC0F10000E7
:103C40009EF800E04FEA4E0E00FB0EFC38BF490024
:103C50004FEA2C1C02F5FA020CFB0EF34FEACE1EC3
:103C60004FEA112C4FEAC1210EEB635E42EB224278
:103C70000EFB0CFC4FEA1C5300FB03114FEA112C06
:103C80004FEA01310EFB0CFC4FEADC4C00FB0C113F
:103C9000C14228BF09184CEB03335DF804EB10EB6D
:103CA000410143EBC250B2F57C0F38BF704729D5B4
:103CB00012F0F00F1CBF00F1C04000F00040704750
:103CC000008182838485868788898B8C8D8E8F91F5
:103CD0009293959697999A9C9D9FA0A2A3A5A7A819
:103CE000AAACAEB0B2B3B5B7B9BCBEC0C2C5C7C945
:103CF000CCCED1D4D7D9DCDFE2E6E9ECF0F3F7FAA9
:103D0000FE0000004FEA400C0CF1807CBCF17E4FBD
:103D100028BF7047B0F1C04000F05BB990EA010FD6
:103D20000CEAD11348BF42F48072624538BF634544
:103D300007D213F47F0F16D080EA010000F0004094
:103D4000704710B500F0FFF8097EFC3E00F005B8A2
:103D500080EA010000F00040704780EA010000F0B6
:103D6000004000F036B912F47F0F04BF02487047DC
:103D700080EA010000F02DB90000C07F41000B0E69
:103D8000D3F19E0208D950F400034FEA032323FA2B
:103D900002F048BF4042704710B500F0D4F800BFB1
:103DA00049922480002070476FF0004282EA200090
:103DB00070470000B0FA80F310FA03F2C3F19D03DC
:103DC0000AD0D90501EB1220530638BF704700F125
:103DD000010008BF20F001007047000050EA010C0C
:103DE00000F113801CF5000F58BFBCF5000F01D483
:103DF0008842704707D710F5000F58BF11F5000F24
:103E000015D488427047894270471CF5000F04D5CD
:103E1000BCF5000FF7D5814270474FF0807C1CEB5A
:103E2000400F38BF1CEB410F01D28142704710B5E3
:103E300000F089F8922449004FF000504FF0805173
:103E4000FFF7CDBE4FF47F0C1CEAD0121EBF1CEA58
:103E5000D11392EA0C0F93EA0C0F00F0478090EA1E
:103E6000010F48BF42F480724FF0004C4CEA002032
:103E70004CEA012102EB0302A0FB0113A2F50002B0
:103E8000002918BF43F001035B0028BF4FEA33034A
:103E900042EB22425FEA132C4CEBC2502EBFBCEB2C
:103EA000436FB2F57C0F70474FEA036CBCF1004FD3
:103EB00008BF20F00100B2F57C0F38BF70470BD56A
:103EC00082F0FF0212F5803FC8BF704700F1C0408A
:103ED000D8BF00F00040704700F5000C5FEA4C0CC2
:103EE00048BF7047B0F1C04000F073B890EA010FCE
:103EF0000CEAD11348BF42F48072624538BF634573
:103F000004D280EA010000F00040704710B500F0D4
:103F10001AF800BF8900013E00F007B800F009B8A8
:103F20005FEA410C5FEA1C6C08D080EA010000F0F7
:103F300050B85FEA400C5FEA1C6CF6D14FF00040CD
:103F4000A0F5800070470EF1020E2EF0030E5EF811
:103F5000044B244204D44FEA4102B2F17F4F11D8FE
:103F60004FEA4003B3F17F4F0CD80ED14FEAD07C1B
:103F7000B2F17F4F0CEB4C0C0CF1020C08BF4CEB78
:103F8000D17C04E04FF0080C01E04FEAD17C0CEB4F
:103F90004C0324FA03F404F00704B4F1040C06D231
:103FA0000EEB840CBDE810404CF0010C6047DFE8DC
:103FB0000CF0070802024FF00040A0F5800010BD91
:103FC0000846420018BFD2F1807288BF00F000405E
:103FD00010BDFF2141EAD050C005704751EA000CE6
:103FE00000F113801CF5000F58BFBCF5000F01D481
:103FF0008142704707D711F5000F58BF10F5000F29
:1040000015D481427047894270471CF5000F04D5D2
:10401000BCF5000FF7D5884270474FF0807C1CEB51
:10402000410F38BF1CEB400F01D28842704780EA35
:10403000010081EA000180EA0100FFF7F8BE0000FC
:1040400090EA010F48BF81F000413FF520AD421AD0
:1040500004D882F00042A0EB020011444FEAD05293
:104060004FF07F4C1CEA410FA2EBD15318BF9CEAE2
:10407000026F4AD04FF0004C4CEA00204CEA01217C
:1040800021FA03FCB0EB0C0C0FD412F0FE0F36D06B
:104090005FEA4C001DD5001240EBC25038BF70479C
:1040A0001CF03F0F18BF70470BE0A2F101025FEA5E
:1040B0001C2040EBC25038BF70471CF07F0F18BF68
:1040C0007047C3F12003994014BF401E20F0010047
:1040D000704780084FEA122308BF7047B0FA80FC8F
:1040E000A2EB0C02CCF1280C60FA0CF093EA122F30
:1040F00004BF00EBC25070474FEAC3707047130A09
:104100005FEADC1008BF7047F6E79CEA026F04D054
:1041100010EA5C0F08BF0020704710B5FFF713FFCF
:1041200040DFF63E81F0004070470CF00F03092B92
:1041300008BF082000F051800A2B0BD0082B18BFB5
:10414000704708BF1CF0400F0AD04FF000004FF03E
:10415000000170471CF0400F18BF4FF0004070473F
:104160001CF0100F08D020F0704300F07F4242EAAC
:10417000D3014FEA4370704700F0604021F07F4266
:1041800042EA000201F07F4040EA727070474FF04F
:10419000FF0212EAD0521CBF92F0FF038B42C2BF53
:1041A000D14200EBC1507047002A0AD0002B0BD03F
:1041B000002900F00040A4BF40F0FE4040F40000A1
:1041C000704700F00040704743024FF00B0C18BFDF
:1041D0004CF0806C7FF4B6AC70471CF4801F11D09B
:1041E0001CF4E02F03D06FEACC31490070474FF048
:1041F0004050EFF3008222F0704242EA000282F364
:10420000008870474FF00000704701020203040568
:10421000060708090A0B0C0D0E0F10100000000015
:104220000000000001020304060708090000000066
:104230000102030454420008000000208400000032
:1042400028010008D842000884000020441700001C
:104250004401000800000000000000000000000011
:1042600001000000100000000000000000127A00B1
:10427000000000000000000000000000000000003E
:10428000000000000000000000000000000000002E
:10429000000000000000000000000000000000001E
:1042A000000000000000000000000000000000000E
:1042B00000000000000000000000000000000000FE
:1042C00000000000000000000000000000000000EE
:0842D000AAAAAAAA000000003E
:04000005080000ED02
:00000001FF
